AXFH000
HFDTE220526
HFPLTPILOT:Scott O’Brien
HFGTYGLIDERTYPE:Ozone Swift 6
HFDTM100GPSDATUM:WGS84
HFRFWFIRMWAREVERSION:9.6
HFRHWHARDWAREVERSION:iPhone 15
HFFTYFRTYPE:Flyskyhy,9.6
HFGPS:Bluetooth vario
HFPRSVARIO:Bluetooth vario
HFCCLCOMPETITIONCLASS:Paraglider
HFTZNTIMEZONE:-7
HFSITSITE:Woodrat Mountain,US
I053638FXA3941VXA4244GSP4547CCO4850HDT
C220526191906220526000106TASK
C0000000N00000000ETAKEOFF
C4213881N12300217W00010009999999000000360000STARTAREA WDLAUN        
C4213881N12300217W00010009999999000000360000TURNAREA WDLAUN        
C4215812N12303089W00000000001000000000360000TURNAREA RABIES        
C4218861N12304123W00000000003500000000360000TURNAREA BALDY         
C4216494N12305163W00000000001000000000360000TURNAREA RAB-PK        
C4212967N12305053W00000000001000000000360000TURNAREA OFF-RG        
C4213948N12303331W00000000001000000000360000TURNAREA LONSWD        
C4213948N12303331W00000000000100000000360000FINISHAREA LONSWD        
C0000000N00000000ELANDING
B1919364213884N12300234WA0115501154000100000304022
B1919374213884N12300234WA0115401154000100000304021
B1919384213884N12300234WA0115501154000100000304025
B1919394213884N12300234WA0115401154000100000304019
B1919404213884N12300234WA0115401154000100000304021
B1919414213884N12300234WA0115401154000100000304021
B1919424213884N12300234WA0115401154000100000304020
B1919434213884N12300234WA0115401154000100000304020
B1919444213884N12300234WA0115401154000100000304020
B1919454213884N12300234WA0115401154000100000304021
B1919464213885N12300234WA0115401154000100000304021
B1919474213885N12300234WA0115401154000100000304021
B1919484213885N12300234WA0115401154000100000304035
B1919494213884N12300234WA0115501154000100000304100
B1919504213885N12300234WA0115401154000100000304110
B1919514213885N12300234WA0115401154000100000304108
B1919524213885N12300234WA0115401154000100000304108
B1919534213886N12300234WA0115401154000100001304130
B1919544213886N12300235WA0115401154000100003313145
B1919554213886N12300235WA0115401155000100002295138
B1919564213886N12300235WA0115401155000100001295091
B1919574213886N12300235WA0115401155000100000295155
B1919584213886N12300235WA0115401155000100002339140
B1919594213886N12300236WA0115401155000100002325043
B1920004213887N12300237WA0115301155000100004293320
B1920014213887N12300238WA0115201154000100008313344
B1920024213888N12300239WA0115301154000100009318338
B1920034213890N12300241WA0115201154001100010315319
B1920044213891N12300243WA0115001154000100015308336
B1920054213892N12300245WA0115101154000100017314332
B1920064213894N12300248WA0115001153000100018321340
B1920074213897N12300250WA0115001153000100020321338
B1920084213899N12300253WA0115301154000100019309000
B1920094213900N12300256WA0115101153000100020304317
B1920104213902N12300260WA0114901152000100024302337
B1920114213904N12300265WA0114701151000100028306332
B1920124213907N12300269WA0114801150000100030313338
B1920134213910N12300273WA0114701150000100028323337
B1920144213914N12300276WA0114601149000100024331334
B1920154213917N12300278WA0114301147000100022333342
B1920164213920N12300281WA0114101144000100022329343
B1920174213923N12300283WA0114001141000100027325340
B1920184213927N12300287WA0113701140000100034324336
B1920194213931N12300291WA0113801139000100034328342
B1920204213935N12300294WA0113901138000100030335337
B1920214213939N12300296WA0113801138000100024336344
B1920224213942N12300299WA0113701137000100024329339
B1920234213945N12300302WA0113501134000100022316331
B1920244213947N12300305WA0113201131000100023315339
B1920254213950N12300308WA0112901129000100024317328
B1920264213953N12300311WA0112701127000100023321334
B1920274213955N12300314WA0112601125000100023324330
B1920284213958N12300317WA0112401123000100025327334
B1920294213962N12300320WA0112301121000100027327333
B1920304213965N12300323WA0112201120000100027330336
B1920314213969N12300326WA0112201120000100028331340
B1920324213972N12300328WA0112201119000100026323324
B1920334213975N12300332WA0112101118000100026308320
B1920344213977N12300337WA0112001117000100028297300
B1920354213978N12300343WA0111901116000100032280315
B1920364213978N12300351WA0111901116000100035270315
B1920374213978N12300358WA0112001116000100034282316
B1920384213979N12300364WA0112101116000100030291325
B1920394213981N12300368WA0112101116000100023303322
B1920404213983N12300371WA0112101115000100019307325
B1920414213985N12300374WA0112001114000100021317322
B1920424213988N12300377WA0111901112000100024325326
B1920434213991N12300379WA0111901112000100027334334
B1920444213995N12300381WA0112101112000100025338338
B1920454213998N12300383WA0112101114000100021345341
B1920464214001N12300383WA0112301115000100022348342
B1920474214005N12300384WA0112401116000100024341349
B1920484214008N12300386WA0112601118000100025330328
B1920494214012N12300389WA0112701119000100027325324
B1920504214014N12300394WA0112801120000100027306323
B1920514214015N12300400WA0113101123000100028290330
B1920524214016N12300406WA0113101125000100027301337
B1920534214019N12300410WA0113201126000100025310344
B1920544214021N12300413WA0113401127000100021323337
B1920554214024N12300413WA0113401128000100020356343
B1920564214028N12300411WA0113401128000100019007357
B1920574214030N12300411WA0113301127000100016006015
B1920584214032N12300410WA0113101126000100013023010
B1920594214034N12300408WA0113001124000100015032018
B1921004214036N12300405WA0112601123000100018045025
B1921014214038N12300401WA0112501122000100025054040
B1921024214040N12300397WA0112401121000100024053051
B1921034214042N12300393WA0112401121000100021050056
B1921044214044N12300389WA0112301119000100021058057
B1921054214046N12300385WA0112101118000100025071061
B1921064214046N12300379WA0112101117000100028082076
B1921074214046N12300373WA0112001115000100031095088
B1921084214045N12300367WA0111901115000100033110100
B1921094214042N12300361WA0111901114000100034123115
B1921104214038N12300356WA0111701113000100036140128
B1921114214032N12300352WA0111601112000100039157147
B1921124214026N12300351WA0111501110000100041166166
B1921134214018N12300354WA0111501109000100044197176
B1921144214012N12300361WA0111501108000100043216209
B1921154214008N12300369WA0111601108000100042234230
B1921164214007N12300377WA0111601109000100036248249
B1921174214007N12300384WA0111701109000100032260265
B1921184214007N12300391WA0111601109000100031260284
B1921194214006N12300397WA0111401108000100032256290
B1921204214005N12300404WA0111201106000100033263288
B1921214214005N12300411WA0111001104000100033277293
B1921224214007N12300417WA0110901103000100032290303
B1921234214009N12300423WA0110701102000100032298313
B1921244214012N12300429WA0110701102000100030297324
B1921254214014N12300434WA0110701102000100028294326
B1921264214016N12300439WA0110601101000100027300323
B1921274214018N12300444WA0110401099000100029309330
B1921284214022N12300448WA0110201098000100032313336
B1921294214025N12300453WA0110201097000100031308342
B1921304214028N12300458WA0110301098000100027300340
B1921314214030N12300462WA0110301098000100022303332
B1921324214032N12300465WA0110201097000100023311340
B1921334214034N12300469WA0110001096000100026315345
B1921344214037N12300473WA0110001095000100031316348
B1921354214041N12300477WA0110001095000100032319347
B1921364214045N12300481WA0110001095000100030326350
B1921374214048N12300483WA0110001095000100027338352
B1921384214052N12300484WA0110001095000100024346356
B1921394214055N12300486WA0109901094000100023341353
B1921404214059N12300487WA0109701093000100024336000
B1921414214062N12300489WA0109601092000100024337357
B1921424214065N12300491WA0109601091000100025336356
B1921434214068N12300493WA0109501091000100023328354
B1921444214071N12300495WA0109501090000100023318348
B1921454214073N12300498WA0109301088000100020313349
B1921464214075N12300501WA0109001086000100019318018
B1921474214078N12300504WA0108701084000100022319356
B1921484214080N12300507WA0108401082000100026323345
B1921494214084N12300510WA0108101079000100031320347
B1921504214088N12300515WA0108001077000100035317343
B1921514214092N12300520WA0108101076000100036321000
B1921524214096N12300524WA0108101075000100033326347
B1921534214100N12300527WA0108101075000100029329349
B1921544214104N12300530WA0108101074000100027325347
B1921554214107N12300533WA0107901072000100028323343
B1921564214111N12300537WA0107601070000100032326354
B1921574214115N12300540WA0107401068000100036332354
B1921584214120N12300543WA0107301068000100036336356
B1921594214125N12300546WA0107301067000100031335355
B1922004214129N12300548WA0107301066000100027333352
B1922014214132N12300551WA0107101064000100026330348
B1922024214136N12300554WA0106801062000100030327346
B1922034214140N12300558WA0106601060000100034325353
B1922044214144N12300562WA0106501058000100037324358
B1922054214149N12300566WA0106401058000100037325358
B1922064214153N12300570WA0106501057000100035331008
B1922074214158N12300572WA0106401057000100031339354
B1922084214162N12300574WA0106301055000100029342354
B1922094214167N12300577WA0106101054000100029335336
B1922104214170N12300580WA0106001052000100029324345
B1922114214174N12300584WA0105701050000100031315350
B1922124214177N12300588WA0105601049000100030317000
B1922134214181N12300592WA0105401047000100029322341
B1922144214184N12300596WA0105301045000100026324354
B1922154214187N12300599WA0105201044000100026317341
B1922164214190N12300603WA0105001043000100029312357
B1922174214193N12300608WA0104901042000100032308341
B1922184214196N12300613WA0104801041000100035310344
B1922194214199N12300618WA0104801041000100035312350
B1922204214203N12300623WA0104801041000100034317352
B1922214214207N12300627WA0105001042000100033321354
B1922224214211N12300631WA0105101042000100030322343
B1922234214214N12300635WA0105301043000100027321348
B1922244214217N12300638WA0105301044000100028318337
B1922254214220N12300642WA0105401044000100031316344
B1922264214224N12300647WA0105501046000100034316327
B1922274214227N12300651WA0105701048000100034312337
B1922284214230N12300656WA0106001050000100031304338
B1922294214233N12300661WA0106101052000100028303355
B1922304214235N12300666WA0106201053000100026314354
B1922314214238N12300669WA0106301054000100025323000
B1922324214242N12300670WA0106201055000100025338009
B1922334214246N12300670WA0106401056000100024357019
B1922344214250N12300667WA0106501057000100025015032
B1922354214254N12300661WA0106601058000100026039047
B1922364214254N12300652WA0106701059000100029088059
B1922374214251N12300643WA0106801060000100032114093
B1922384214245N12300637WA0106701060000100032140115
B1922394214239N12300636WA0106801061000100027166138
B1922404214232N12300643WA0107001061000100035214161
B1922414214227N12300652WA0107201063000100037233225
B1922424214224N12300660WA0107601066000100034238245
B1922434214222N12300666WA0107901068000100028239251
B1922444214220N12300671WA0108001070000100027244254
B1922454214219N12300677WA0108001071000100029251259
B1922464214219N12300683WA0108101072000100032269266
B1922474214220N12300690WA0108301073000100032283283
B1922484214222N12300695WA0108701075000100029295296
B1922494214225N12300699WA0109001078000100025311308
B1922504214227N12300702WA0109501083000100021310327
B1922514214229N12300705WA0109801086000100017302332
B1922524214231N12300707WA0110101090000100015294336
B1922534214232N12300709WA0110301092000100013315337
B1922544214234N12300710WA0110401095000100013341352
B1922554214236N12300709WA0110301096000100019036009
B1922564214238N12300705WA0110501098000100022058042
B1922574214239N12300700WA0110701100000100026069059
B1922584214239N12300693WA0111101102000100028093068
B1922594214237N12300686WA0111301104000100035116090
B1923004214233N12300679WA0111501107000100038131114
B1923014214227N12300674WA0112101110000100035145128
B1923024214222N12300672WA0112201113000100033163143
B1923034214217N12300675WA0112401116000100028203163
B1923044214214N12300681WA0112501118000100029227209
B1923054214212N12300688WA0112701120000100031254237
B1923064214212N12300696WA0113001124000100033270266
B1923074214213N12300702WA0113501128000100031277281
B1923084214214N12300708WA0113901133000100026283289
B1923094214214N12300713WA0114201136000100021274296
B1923104214214N12300717WA0114401138000100021269290
B1923114214214N12300722WA0114601141000100025276286
B1923124214215N12300727WA0114701144000100027289290
B1923134214217N12300732WA0114901147000100025301300
B1923144214219N12300735WA0115101150000100022312311
B1923154214222N12300738WA0115201151000100019329322
B1923164214224N12300737WA0115301153000100016005336
B1923174214226N12300735WA0115201154000100018018007
B1923184214229N12300733WA0115101152000100020020017
B1923194214232N12300731WA0115101151000100022027026
B1923204214235N12300728WA0115001151000100025040032
B1923214214237N12300723WA0115001151000100029060042
B1923224214238N12300717WA0115301152000100030070055
B1923234214239N12300711WA0115501153000100030081066
B1923244214240N12300705WA0115901154000100027079073
B1923254214240N12300700WA0116301157000100023077076
B1923264214241N12300695WA0116401158000100022078076
B1923274214241N12300690WA0116701160000100028078071
B1923284214242N12300684WA0116801163000100031081083
B1923294214242N12300678WA0117101165000100031092083
B1923304214241N12300672WA0117501168000100032106094
B1923314214238N12300666WA0117801171000100032118107
B1923324214234N12300662WA0118101174000100033143120
B1923334214228N12300660WA0118601177000100034165145
B1923344214221N12300663WA0118901181000100037197171
B1923354214215N12300667WA0119401185000100037214207
B1923364214212N12300672WA0119601188000100034229225
B1923374214211N12300679WA0119701192000100032254243
B1923384214212N12300686WA0120101196000100030270268
B1923394214214N12300691WA0120501200000100028291283
B1923404214218N12300695WA0120801203000100028318302
B1923414214222N12300697WA0121101207000100028338325
B1923424214227N12300698WA0121501211000100029352342
B1923434214231N12300698WA0121601214000100027002353
B1923444214235N12300695WA0121801216000100025028001
B1923454214237N12300689WA0122001218000100026059021
B1923464214237N12300681WA0122001220000100029082048
B1923474214237N12300674WA0122001221000100027083072
B1923484214237N12300669WA0121801221000100027081077
B1923494214237N12300663WA0121501221000100030085076
B1923504214237N12300656WA0121301220000100034092083
B1923514214235N12300649WA0121201220000100037109091
B1923524214231N12300642WA0121301219000100041128106
B1923534214225N12300637WA0121601219000100041145125
B1923544214218N12300634WA0121701219000100040158145
B1923554214212N12300631WA0121701219000100039158160
B1923564214206N12300629WA0121701218000100040159168
B1923574214199N12300626WA0121901218000100046166172
B1923584214192N12300625WA0122001219000100047174185
B1923594214185N12300625WA0122401220000100047178190
B1924004214178N12300628WA0122601221000100048199195
B1924014214172N12300634WA0123001224000100047214213
B1924024214167N12300641WA0123601228000100043224228
B1924034214164N12300648WA0124001233000100036238239
B1924044214163N12300655WA0124301238000100031253255
B1924054214165N12300661WA0124501241000100029284271
B1924064214167N12300667WA0124701244000100029298299
B1924074214171N12300669WA0124901247000100024329312
B1924084214177N12300667WA0125101250000100027018338
B1924094214180N12300660WA0125401253000100031061016
B1924104214182N12300652WA0125901257000100033077053
B1924114214180N12300644WA0126401261000100032097068
B1924124214176N12300638WA0126801265000100030128087
B1924134214169N12300635WA0127101269000100036161119
B1924144214162N12300635WA0127601274000100040189159
B1924154214156N12300638WA0128001278000100039201193
B1924164214151N12300642WA0128201281000100037216207
B1924174214149N12300649WA0128401285000100034237225
B1924184214147N12300656WA0128801289000100033253249
B1924194214148N12300662WA0129201293000100031269265
B1924204214149N12300668WA0129501296000100028284281
B1924214214152N12300672WA0129701299000100026319296
B1924224214156N12300674WA0129901302000100026347326
B1924234214161N12300672WA0130401306000100033023348
B1924244214166N12300668WA0130601309000100031037018
B1924254214169N12300663WA0131001313000100030048029
B1924264214170N12300657WA0131401317000100027069038
B1924274214170N12300651WA0131701320000100026084056
B1924284214168N12300646WA0132001323000100028107069
B1924294214165N12300640WA0132301325000100031122093
B1924304214161N12300635WA0132601328000100039138110
B1924314214155N12300630WA0133101332000100043150131
B1924324214148N12300628WA0133301336000100042164146
B1924334214142N12300629WA0133701340000100042187163
B1924344214136N12300634WA0134201343000100040218190
B1924354214132N12300640WA0134201346000100036232226
B1924364214133N12300647WA0134401349000100026277243
B1924374214136N12300651WA0134601352000100023308291
B1924384214140N12300652WA0135101356000100021006318
B1924394214145N12300648WA0135301359000100027034003
B1924404214147N12300641WA0135501361000100034074025
B1924414214148N12300633WA0135801363000100037086063
B1924424214146N12300625WA0136201366000100038100074
B1924434214143N12300617WA0136501369000100040119089
B1924444214137N12300612WA0136801372000100040139109
B1924454214130N12300609WA0136901374000100042163133
B1924464214122N12300610WA0137101376000100047187161
B1924474214115N12300616WA0137401378000100049209190
B1924484214110N12300622WA0137701382000100044219215
B1924494214106N12300627WA0138201386000100035230227
B1924504214106N12300633WA0138401390000100027244241
B1924514214106N12300638WA0138501392000100023268260
B1924524214109N12300642WA0139001395000100022297286
B1924534214112N12300644WA0139201398000100020330310
B1924544214116N12300644WA0139401400000100021003336
B1924554214120N12300641WA0139601403000100030041000
B1924564214123N12300636WA0139701405000100034052032
B1924574214125N12300627WA0139901406000100044082042
B1924584214124N12300617WA0140201409000100045094072
B1924594214121N12300608WA0140601411000100048115085
B1925004214116N12300600WA0140601413000100046132106
B1925014214109N12300597WA0140801415000100042158125
B1925024214101N12300598WA0141001417000100042185155
B1925034214095N12300601WA0141201420000100040202188
B1925044214090N12300607WA0141501422000100038216209
B1925054214086N12300612WA0141701426000100034225227
B1925064214083N12300617WA0142001429000100029232238
B1925074214080N12300622WA0142201431000100026240248
B1925084214079N12300627WA0142401434000100028252258
B1925094214078N12300633WA0142701436000100030267269
B1925104214079N12300639WA0142901438000100029285282
B1925114214081N12300644WA0143201441000100026299297
B1925124214084N12300647WA0143401443000100021327311
B1925134214087N12300648WA0143601446000100020347333
B1925144214091N12300648WA0143801448000100021004347
B1925154214094N12300646WA0144101451000100022021359
B1925164214097N12300644WA0144301453000100023039012
B1925174214099N12300639WA0144501455000100024055025
B1925184214100N12300634WA0144401457000100027065039
B1925194214101N12300627WA0144401458000100031078048
B1925204214099N12300617WA0144501458000100044100062
B1925214214096N12300608WA0144701459000100047111089
B1925224214091N12300599WA0144901460000100050129101
B1925234214084N12300592WA0145201462000100050143122
B1925244214077N12300588WA0145501463000100049154138
B1925254214070N12300586WA0145501464000100048167151
B1925264214063N12300585WA0145501465000100047174167
B1925274214056N12300586WA0145601466000100045185177
B1925284214049N12300589WA0145701467000100044202190
B1925294214045N12300595WA0145901468000100043220210
B1925304214041N12300602WA0146101470000100041231232
B1925314214038N12300609WA0146401473000100038243243
B1925324214037N12300617WA0146401475000100037255257
B1925334214037N12300625WA0146801477000100037274269
B1925344214039N12300631WA0147001479000100033289286
B1925354214043N12300636WA0147501482000100026314300
B1925364214047N12300636WA0147701486000100022352323
B1925374214050N12300635WA0148101489000100020017350
B1925384214053N12300633WA0148301491000100021037006
B1925394214055N12300629WA0148501493000100024046021
B1925404214058N12300625WA0148701495000100028056029
B1925414214060N12300620WA0149001498000100032069039
B1925424214061N12300613WA0149301500000100036083052
B1925434214061N12300605WA0149501503000100039094067
B1925444214059N12300596WA0149601506000100042104080
B1925454214055N12300588WA0149801508000100045119091
B1925464214050N12300580WA0150001510000100049132108
B1925474214044N12300574WA0150001511000100051144125
B1925484214037N12300569WA0150201513000100050154139
B1925494214029N12300566WA0150201514000100049166152
B1925504214022N12300566WA0150001514000100047178166
B1925514214015N12300568WA0150101514000100048190181
B1925524214008N12300571WA0150301515000100043199197
B1925534214003N12300575WA0150401515000100041210209
B1925544213999N12300581WA0150401516000100039222222
B1925554213996N12300588WA0150501517000100040236236
B1925564213993N12300595WA0150701519000100040248251
B1925574213992N12300603WA0150901521000100037260262
B1925584213993N12300610WA0151201523000100032275275
B1925594213996N12300614WA0151501524000100023297291
B1926004213998N12300617WA0151601526000100022312312
B1926014214001N12300620WA0151901528000100022309323
B1926024214003N12300624WA0152101531000100025310320
B1926034214006N12300627WA0152301533000100025318320
B1926044214010N12300630WA0152601535000100025331326
B1926054214013N12300632WA0152601538000100024341336
B1926064214016N12300633WA0152801540000100021348342
B1926074214019N12300633WA0153101543000100020002347
B1926084214022N12300632WA0153201544000100020023356
B1926094214024N12300630WA0153301546000100020036010
B1926104214026N12300626WA0153101546000100022058019
B1926114214027N12300621WA0153101546000100025064036
B1926124214028N12300616WA0153001545000100030071045
B1926134214029N12300609WA0153001545000100033079054
B1926144214030N12300601WA0152901545000100038085062
B1926154214028N12300592WA0153101546000100043101071
B1926164214026N12300583WA0153401547000100044109088
B1926174214022N12300576WA0153801549000100041123097
B1926184214015N12300572WA0154101550000100042151112
B1926194214008N12300570WA0154201552000100041163147
B1926204214001N12300570WA0154501554000100043182164
B1926214213994N12300572WA0154701557000100042191190
B1926224213987N12300575WA0154901559000100041201201
B1926234213982N12300580WA0155101561000100043211218
B1926244213976N12300585WA0155401564000100044221230
B1926254213972N12300593WA0155701567000100041231240
B1926264213970N12300600WA0156101570000100034250252
B1926274213971N12300606WA0156201572000100029266272
B1926284213972N12300611WA0156501575000100027279288
B1926294213973N12300617WA0156701578000100026283300
B1926304213975N12300621WA0156901579000100024298303
B1926314213977N12300625WA0156901581000100020317315
B1926324213980N12300626WA0157001582000100018333329
B1926334213982N12300626WA0157001584000100017008339
B1926344213985N12300623WA0156901585000100021028000
B1926354213988N12300620WA0157101586000100024037014
B1926364213991N12300616WA0157201586000100022051024
B1926374213993N12300612WA0157101587000100023067033
B1926384213994N12300607WA0157001586000100025076045
B1926394213994N12300601WA0157001586000100030083057
B1926404213994N12300593WA0157001587000100036089066
B1926414213993N12300586WA0157101588000100037091074
B1926424213993N12300578WA0157201589000100037099081
B1926434213991N12300570WA0157301589000100040107090
B1926444213988N12300563WA0157401589000100044117097
B1926454213984N12300555WA0157601591000100047128108
B1926464213980N12300548WA0157701592000100045135124
B1926474213974N12300542WA0158001594000100042141128
B1926484213969N12300538WA0158201596000100039151141
B1926494213964N12300536WA0158301597000100039161151
B1926504213958N12300534WA0158401598000100043169163
B1926514213951N12300533WA0158501599000100042178178
B1926524213945N12300534WA0158701601000100040193189
B1926534213940N12300539WA0158901602000100038210208
B1926544213936N12300545WA0159001604000100037230229
B1926554213934N12300552WA0159201605000100034245252
B1926564213933N12300559WA0159301607000100029258268
B1926574213933N12300565WA0159201608000100028269282
B1926584213934N12300570WA0159201608000100029285291
B1926594213937N12300576WA0159201609000100031298304
B1927004213941N12300581WA0159301610000100031315313
B1927014213945N12300584WA0159501611000100029330325
B1927024213950N12300583WA0159601611000100028008336
B1927034213954N12300581WA0159701612000100029025002
B1927044213958N12300578WA0159901614000100029034015
B1927054213961N12300574WA0160101616000100027041025
B1927064213964N12300570WA0160301617000100024055029
B1927074213965N12300566WA0160201618000100024074038
B1927084213966N12300560WA0160101619000100027083051
B1927094213966N12300554WA0159901619000100033087061
B1927104213965N12300546WA0159701618000100040093069
B1927114213964N12300538WA0159901617000100044100077
B1927124213962N12300529WA0159901617000100045108087
B1927134213957N12300521WA0159901617000100045126096
B1927144213951N12300516WA0160001616000100044143116
B1927154213944N12300513WA0160101616000100040159136
B1927164213937N12300512WA0160201617000100039169157
B1927174213931N12300512WA0160201617000100037177171
B1927184213926N12300513WA0160101616000100037187182
B1927194213920N12300515WA0160001616000100040199195
B1927204213914N12300519WA0160001616000100044206214
B1927214213908N12300524WA0160201616000100045210221
B1927224213903N12300530WA0160501618000100040215231
B1927234213899N12300534WA0160701620000100034220236
B1927244213896N12300539WA0160901621000100032230244
B1927254213893N12300544WA0160901622000100033239255
B1927264213891N12300550WA0161001624000100035244263
B1927274213889N12300557WA0161201626000100032252266
B1927284213889N12300563WA0161201627000100029264274
B1927294213889N12300568WA0161301628000100029271285
B1927304213889N12300574WA0161401628000100030276291
B1927314213890N12300581WA0161401628000100031282294
B1927324213892N12300587WA0161501629000100031291298
B1927334213894N12300592WA0161501630000100030300305
B1927344213896N12300597WA0161701631000100032309312
B1927354213900N12300602WA0162001633000100032316319
B1927364213904N12300606WA0162001633000100032319323
B1927374213907N12300610WA0162101636000100030320326
B1927384213911N12300613WA0162101637000100027324327
B1927394213914N12300616WA0162101637000100025335331
B1927404213917N12300617WA0162101637000100023349338
B1927414213921N12300617WA0162101638000100023006348
B1927424213924N12300616WA0162001637000100023022000
B1927434213927N12300613WA0161901637000100024030011
B1927444213929N12300609WA0161601636000100025057017
B1927454213928N12300600WA0161401634000100036093037
B1927464213926N12300592WA0161301632000100041106076
B1927474213923N12300584WA0161201631000100043118092
B1927484213918N12300577WA0161101629000100044134106
B1927494213911N12300574WA0161101628000100044156125
B1927504213903N12300572WA0161101627000100043168156
B1927514213897N12300572WA0161301628000100043175174
B1927524213890N12300572WA0161301628000100040182185
B1927534213884N12300573WA0161201627000100039188199
B1927544213879N12300575WA0161001626000100041194203
B1927554213872N12300579WA0160801625000100045203213
B1927564213866N12300583WA0160901625000100046209222
B1927574213861N12300589WA0161001625000100043218231
B1927584213857N12300596WA0161201626000100039231239
B1927594213855N12300602WA0161101626000100036243250
B1928004213853N12300609WA0161201626000100037252265
B1928014213852N12300617WA0161201627000100040251278
B1928024213850N12300625WA0161401628000100040252281
B1928034213849N12300632WA0161601629000100038260285
B1928044213849N12300639WA0161601630000100036273293
B1928054213851N12300646WA0161801631000100034293298
B1928064213855N12300651WA0162001633000100030307314
B1928074213859N12300654WA0162201635000100027313324
B1928084213862N12300657WA0162401638000100023319327
B1928094213865N12300660WA0162501639000100023332333
B1928104213869N12300661WA0162501640000100025351341
B1928114213873N12300660WA0162601641000100030010353
B1928124213878N12300658WA0162801643000100030023007
B1928134213882N12300653WA0163001644000100029039017
B1928144213884N12300648WA0163101646000100027059028
B1928154213885N12300643WA0163201647000100026077042
B1928164213885N12300637WA0163301648000100026087060
B1928174213885N12300631WA0163101647000100027089072
B1928184213885N12300625WA0163001646000100031089080
B1928194213884N12300618WA0162901645000100036093085
B1928204213883N12300611WA0162901644000100037103092
B1928214213881N12300604WA0162701644000100038116103
B1928224213877N12300597WA0162701643000100040131112
B1928234213872N12300593WA0162501643000100041145129
B1928244213866N12300589WA0162401642000100043155144
B1928254213860N12300586WA0162301641000100043163155
B1928264213853N12300584WA0162301640000100041172165
B1928274213847N12300584WA0162301639000100041184177
B1928284213841N12300587WA0162201639000100042195193
B1928294213835N12300591WA0162301638000100042202206
B1928304213830N12300596WA0162501639000100038217214
B1928314213827N12300602WA0162601639000100035233232
B1928324213827N12300609WA0162501640000100034255251
B1928334213827N12300617WA0162601640000100035273273
B1928344213829N12300624WA0162601641000100034290289
B1928354213832N12300629WA0162801642000100031305303
B1928364213836N12300632WA0163001643000100030331316
B1928374213841N12300634WA0163101645000100028337337
B1928384213845N12300636WA0163301647000100024331345
B1928394213848N12300639WA0163201647000100023323343
B1928404213851N12300642WA0163201647000100024321343
B1928414213854N12300645WA0163001646000100027326348
B1928424213858N12300648WA0162801645000100030336348
B1928434213862N12300649WA0162601644000100029351352
B1928444213866N12300649WA0162601644000100026003359
B1928454213869N12300649WA0162501642000100022009008
B1928464213873N12300648WA0162301641000100022004013
B1928474213876N12300648WA0162001638000100024001000
B1928484213880N12300648WA0161701636000100028001006
B1928494213884N12300648WA0161501634000100029357003
B1928504213888N12300648WA0161401633000100029353002
B1928514213893N12300649WA0161501632000100026354002
B1928524213896N12300649WA0161401631000100023002011
B1928534213899N12300648WA0161101629000100021011017
B1928544213902N12300646WA0160801627000100024020019
B1928554213906N12300644WA0160601624000100029022018
B1928564213910N12300642WA0160401621000100032022011
B1928574213914N12300640WA0160201620000100030018353
B1928584213919N12300638WA0160101619000100027010358
B1928594213922N12300638WA0160101619000100024004357
B1929004213926N12300637WA0160001617000100022006000
B1929014213929N12300636WA0159901616000100023012005
B1929024213933N12300635WA0159701614000100025014359
B1929034213936N12300634WA0159601612000100026011355
B1929044213940N12300633WA0159501612000100024007357
B1929054213943N12300632WA0159401610000100023005356
B1929064213947N12300632WA0159301610000100022010005
B1929074213950N12300630WA0159201607000100023020012
B1929084213953N12300629WA0159101607000100025025019
B1929094213956N12300626WA0158901605000100026026026
B1929104213960N12300624WA0158901604000100027033029
B1929114213963N12300620WA0158901604000100027042021
B1929124213966N12300616WA0158801603000100027045026
B1929134213969N12300613WA0158701601000100027039010
B1929144213972N12300610WA0158601600000100026030008
B1929154213975N12300607WA0158401599000100026025010
B1929164213979N12300605WA0158401599000100026026013
B1929174213982N12300602WA0158301598000100026027009
B1929184213986N12300600WA0158301598000100025029009
B1929194213989N12300597WA0158201596000100025031007
B1929204213992N12300595WA0158001595000100027030009
B1929214213996N12300592WA0157901594000100029029009
B1929224214000N12300589WA0157801593000100029030009
B1929234214003N12300586WA0157701593000100027030015
B1929244214007N12300584WA0157701592000100025031015
B1929254214010N12300581WA0157501591000100022033017
B1929264214012N12300579WA0157401589000100022033014
B1929274214015N12300576WA0157101587000100025029013
B1929284214019N12300574WA0156801584000100028026013
B1929294214022N12300571WA0156601582000100029023009
B1929304214026N12300569WA0156501580000100028022013
B1929314214030N12300567WA0156301579000100027022020
B1929324214034N12300565WA0156301579000100025023009
B1929334214037N12300563WA0156101576000100025024016
B1929344214041N12300561WA0155901575000100025024013
B1929354214044N12300559WA0155801573000100025022018
B1929364214048N12300557WA0155501573000100026019005
B1929374214051N12300555WA0155401569000100027014357
B1929384214055N12300554WA0155201567000100028009008
B1929394214059N12300553WA0154901565000100026009000
B1929404214063N12300552WA0154801564000100025011006
B1929414214067N12300551WA0154601562000100024015011
B1929424214070N12300550WA0154501561000100024019017
B1929434214074N12300548WA0154401559000100026020019
B1929444214077N12300546WA0154201557000100027024025
B1929454214081N12300543WA0154101556000100027029022
B1929464214084N12300541WA0154101554000100027033019
B1929474214088N12300538WA0154001553000100024034016
B1929484214090N12300535WA0153901552000100022034029
B1929494214093N12300532WA0153701552000100022041042
B1929504214095N12300529WA0153501549000100025052052
B1929514214098N12300524WA0153301547000100031061065
B1929524214099N12300517WA0153301545000100034071072
B1929534214100N12300510WA0153201544000100035085073
B1929544214100N12300503WA0153101543000100033096089
B1929554214099N12300496WA0153001542000100032101089
B1929564214098N12300490WA0152901540000100034100081
B1929574214097N12300483WA0152601537000100038101083
B1929584214096N12300475WA0152401535000100040103077
B1929594214094N12300467WA0152301533000100038102074
B1930004214093N12300460WA0152101532000100036096066
B1930014214093N12300452WA0152001530000100036089076
B1930024214093N12300445WA0151801528000100037088080
B1930034214093N12300438WA0151701527000100037093085
B1930044214093N12300430WA0151601525000100037097086
B1930054214092N12300423WA0151401524000100036096081
B1930064214091N12300416WA0151201523000100035092078
B1930074214091N12300409WA0151101521000100035091084
B1930084214091N12300401WA0150801519000100037093100
B1930094214090N12300394WA0150701517000100038098096
B1930104214089N12300386WA0150501516000100038102103
B1930114214088N12300379WA0150401515000100038103091
B1930124214086N12300371WA0150201513000100037103093
B1930134214085N12300364WA0150001511000100037104108
B1930144214083N12300357WA0149801508000100038111128
B1930154214081N12300350WA0149501506000100038121140
B1930164214077N12300344WA0149101504000100039134152
B1930174214071N12300341WA0149001501000100039159153
B1930184214063N12300342WA0148801500000100042187174
B1930194214057N12300344WA0148801499000100040193197
B1930204214051N12300346WA0148701499000100036192205
B1930214214046N12300348WA0148501498000100033191211
B1930224214041N12300350WA0148201496000100033197230
B1930234214036N12300353WA0147801494000100036205234
B1930244214031N12300357WA0147701492000100042212227
B1930254214026N12300362WA0147501490000100042219239
B1930264214021N12300368WA0147301488000100040228251
B1930274214018N12300375WA0146901485000100039237260
B1930284214016N12300382WA0146601483000100040250265
B1930294214015N12300391WA0146401481000100040263275
B1930304214016N12300399WA0146301478000100040274283
B1930314214017N12300407WA0146201476000100035281296
B1930324214019N12300414WA0146201475000100032289304
B1930334214022N12300419WA0146001474000100030299314
B1930344214024N12300424WA0145801472000100032306321
B1930354214028N12300429WA0145701469000100032314324
B1930364214032N12300434WA0145601468000100031319329
B1930374214035N12300438WA0145501467000100028321326
B1930384214039N12300441WA0145401466000100026321326
B1930394214042N12300444WA0145301465000100025321325
B1930404214045N12300447WA0145101463000100027321322
B1930414214048N12300451WA0144901461000100028321319
B1930424214051N12300455WA0144801459000100030319314
B1930434214055N12300459WA0144801458000100029315312
B1930444214058N12300463WA0144701457000100027311312
B1930454214060N12300467WA0144601457000100025308308
B1930464214063N12300471WA0144501455000100025309313
B1930474214065N12300475WA0144301453000100024310315
B1930484214068N12300478WA0144101452000100025313314
B1930494214070N12300482WA0143901450000100026316311
B1930504214073N12300486WA0143801448000100027315311
B1930514214077N12300490WA0143601447000100029315307
B1930524214080N12300494WA0143501445000100030316307
B1930534214083N12300498WA0143401443000100030319309
B1930544214087N12300502WA0143101442000100030320305
B1930554214090N12300506WA0143201441000100030318306
B1930564214093N12300510WA0143101440000100029315309
B1930574214096N12300514WA0143101439000100028315311
B1930584214099N12300518WA0142901438000100027318308
B1930594214103N12300522WA0142801437000100028319302
B1931004214106N12300525WA0142701436000100029317301
B1931014214109N12300530WA0142601435000100029312304
B1931024214112N12300534WA0142501434000100029310304
B1931034214115N12300538WA0142401433000100029311310
B1931044214117N12300543WA0142301432000100028315305
B1931054214121N12300547WA0142201430000100028317306
B1931064214124N12300550WA0142101429000100028318307
B1931074214127N12300554WA0142001428000100028318306
B1931084214130N12300558WA0141901427000100029316301
B1931094214133N12300563WA0141801427000100028313296
B1931104214136N12300567WA0141701425000100027309299
B1931114214139N12300571WA0141601423000100026308301
B1931124214141N12300575WA0141501422000100027306298
B1931134214143N12300580WA0141301420000100029303296
B1931144214146N12300585WA0141101418000100031299292
B1931154214148N12300591WA0141001416000100031296293
B1931164214150N12300596WA0140901415000100030297291
B1931174214152N12300601WA0140801414000100027296282
B1931184214154N12300606WA0140901414000100024293284
B1931194214155N12300610WA0140801413000100023285290
B1931204214155N12300615WA0140801412000100024278294
B1931214214156N12300620WA0140601411000100025281301
B1931224214157N12300625WA0140401410000100026290304
B1931234214159N12300630WA0140301408000100028294294
B1931244214160N12300635WA0140301408000100028289293
B1931254214162N12300641WA0140301408000100027283300
B1931264214163N12300646WA0140301407000100025284303
B1931274214164N12300651WA0140201407000100024293301
B1931284214165N12300655WA0140101406000100026297295
B1931294214167N12300660WA0140001405000100028296298
B1931304214169N12300665WA0139901405000100029294304
B1931314214171N12300670WA0139901404000100028297310
B1931324214173N12300675WA0139801403000100025303310
B1931334214176N12300679WA0139601402000100026308304
B1931344214178N12300683WA0139401400000100029306300
B1931354214181N12300688WA0139301399000100032303308
B1931364214183N12300694WA0139301398000100031304316
B1931374214186N12300698WA0139201398000100028313314
B1931384214189N12300702WA0139101397000100027318311
B1931394214192N12300706WA0138901396000100026316305
B1931404214194N12300710WA0138801395000100027310304
B1931414214197N12300714WA0138601393000100028307311
B1931424214200N12300718WA0138401390000100029309310
B1931434214202N12300723WA0138201388000100030312308
B1931444214205N12300727WA0138001386000100030315309
B1931454214209N12300731WA0137801385000100029314307
B1931464214212N12300735WA0137701383000100028313308
B1931474214215N12300740WA0137601381000100028315313
B1931484214218N12300743WA0137401380000100029317312
B1931494214221N12300747WA0137201378000100030318310
B1931504214224N12300752WA0137001378000100031317308
B1931514214228N12300756WA0137001375000100030315304
B1931524214231N12300760WA0136901374000100029313306
B1931534214234N12300765WA0136701374000100029309301
B1931544214236N12300769WA0136601372000100029303300
E193154TPCWaypoint WDLAUN         reached
B1931554214239N12300775WA0136401370000100030297302
B1931564214240N12300780WA0136301369000100029296310
B1931574214243N12300785WA0136101367000100029302315
B1931584214245N12300790WA0135901365000100029310308
B1931594214248N12300794WA0135701363000100029313305
B1932004214251N12300798WA0135501361000100028308302
B1932014214253N12300803WA0135201359000100028300303
B1932024214255N12300808WA0135001357000100028295310
B1932034214257N12300813WA0134801355000100027300314
B1932044214260N12300817WA0134701354000100026307315
B1932054214262N12300821WA0134501352000100026312314
B1932064214265N12300825WA0134401350000100028313312
B1932074214268N12300829WA0134201348000100030312308
B1932084214271N12300834WA0134001347000100031312312
B1932094214274N12300838WA0134001346000100030311310
B1932104214277N12300843WA0133901345000100029310307
B1932114214279N12300847WA0133801343000100027308310
B1932124214282N12300851WA0133601342000100026305304
B1932134214284N12300856WA0133601341000100027302305
B1932144214286N12300861WA0133401339000100029299308
B1932154214288N12300866WA0133301337000100031298309
B1932164214290N12300872WA0133201336000100032299315
B1932174214293N12300877WA0133201335000100030304318
B1932184214295N12300882WA0133201335000100028308316
B1932194214298N12300886WA0133001334000100028307313
B1932204214300N12300891WA0132901333000100028302313
B1932214214303N12300896WA0132701332000100030300312
B1932224214305N12300901WA0132501331000100031303315
B1932234214308N12300906WA0132401329000100032309315
B1932244214311N12300911WA0132301328000100031313315
B1932254214314N12300915WA0132401328000100029314318
B1932264214317N12300920WA0132301327000100028313315
B1932274214320N12300923WA0132201327000100026316314
B1932284214323N12300927WA0132101326000100026316314
B1932294214326N12300931WA0132001325000100029316311
B1932304214329N12300935WA0132001324000100031314314
B1932314214333N12300940WA0131801324000100034315316
B1932324214336N12300944WA0131801324000100034318315
B1932334214340N12300949WA0131901324000100032319325
B1932344214344N12300953WA0131901323000100031316309
B1932354214347N12300958WA0131701322000100030310303
B1932364214350N12300963WA0131501321000100031307311
B1932374214353N12300968WA0131301318000100033308313
B1932384214356N12300973WA0131101316000100035312311
B1932394214360N12300978WA0130901314000100035314309
B1932404214363N12300983WA0130801313000100034314315
B1932414214367N12300988WA0130701311000100033315314
B1932424214370N12300992WA0130501310000100031315315
B1932434214373N12300996WA0130401308000100031314311
B1932444214376N12301001WA0130301307000100030312313
B1932454214380N12301005WA0130101306000100029311313
B1932464214382N12301010WA0130001304000100029311313
B1932474214385N12301014WA0129801303000100029311310
B1932484214388N12301018WA0129601300000100030312315
B1932494214391N12301023WA0129401299000100030315316
B1932504214395N12301027WA0129301296000100030317314
B1932514214398N12301031WA0129001295000100031317307
B1932524214401N12301035WA0128901293000100031313306
B1932534214405N12301040WA0128701292000100031309307
B1932544214408N12301045WA0128501290000100031309311
B1932554214411N12301050WA0128301288000100031311311
B1932564214414N12301054WA0128101285000100033312308
B1932574214417N12301059WA0127901285000100033310306
B1932584214420N12301064WA0127801282000100033309310
B1932594214423N12301070WA0127701281000100032308311
B1933004214426N12301075WA0127501279000100031309316
B1933014214429N12301080WA0127401277000100031309315
B1933024214432N12301084WA0127201275000100031311317
B1933034214435N12301089WA0127001273000100031313318
B1933044214439N12301094WA0126901271000100031311312
B1933054214442N12301099WA0126801270000100031308307
B1933064214445N12301104WA0126601268000100031305304
B1933074214447N12301109WA0126401266000100032304307
B1933084214450N12301114WA0126301264000100032306309
B1933094214453N12301119WA0126101262000100032308306
B1933104214456N12301125WA0125901260000100031305302
B1933114214458N12301130WA0125801259000100031302301
B1933124214461N12301135WA0125701258000100032300302
B1933134214463N12301141WA0125601256000100032298307
B1933144214465N12301147WA0125401255000100032300307
B1933154214468N12301152WA0125301254000100032302303
B1933164214470N12301158WA0125301253000100032301296
B1933174214473N12301163WA0125201253000100030297302
B1933184214475N12301168WA0125301252000100026297313
B1933194214476N12301172WA0125201251000100023301311
B1933204214478N12301176WA0125001251000100023306306
B1933214214480N12301180WA0124801248000100025307303
B1933224214483N12301184WA0124601246000100030306307
B1933234214485N12301189WA0124501245000100030305307
B1933244214488N12301194WA0124501245000100026304307
B1933254214490N12301198WA0124501245000100021301307
B1933264214491N12301201WA0124501244000100020301306
B1933274214493N12301205WA0124201243000100023302304
B1933284214495N12301209WA0124001241000100026302300
B1933294214497N12301214WA0123901239000100028298301
B1933304214499N12301219WA0123801238000100027293308
B1933314214500N12301223WA0123701237000100025293312
B1933324214502N12301228WA0123501235000100026300314
B1933334214504N12301232WA0123301233000100028308312
B1933344214507N12301236WA0123201232000100028310306
B1933354214510N12301240WA0123101231000100027307305
B1933364214512N12301245WA0123101230000100025302313
B1933374214514N12301249WA0122901228000100024303310
B1933384214516N12301253WA0122701226000100024305310
B1933394214518N12301257WA0122501225000100025307309
B1933404214520N12301261WA0122301223000100026307310
B1933414214523N12301265WA0122101221000100026308314
B1933424214525N12301269WA0121901219000100026310317
B1933434214528N12301273WA0121701217000100026313316
B1933444214531N12301277WA0121501215000100026313312
B1933454214533N12301281WA0121301215000100025311312
B1933464214536N12301285WA0121101210000100026309316
B1933474214538N12301289WA0120901208000100027309312
B1933484214541N12301293WA0120701206000100027311305
B1933494214543N12301297WA0120501204000100027308303
B1933504214546N12301301WA0120301202000100027301298
B1933514214548N12301306WA0120101200000100027298299
B1933524214550N12301311WA0119801197000100029302324
B1933534214552N12301316WA0119501195000100029312335
B1933544214556N12301320WA0119401192000100030323330
B1933554214559N12301323WA0119101190000100030334327
B1933564214564N12301326WA0119001188000100030334319
B1933574214568N12301329WA0118901186000100031328315
B1933584214571N12301332WA0118701185000100031319311
B1933594214575N12301337WA0118601184000100030312312
B1934004214578N12301341WA0118501182000100030309310
B1934014214580N12301346WA0118301181000100029308314
B1934024214583N12301350WA0118101179000100030310315
B1934034214586N12301355WA0117901177000100031313316
B1934044214590N12301359WA0117701175000100033314313
B1934054214593N12301364WA0117501173000100034313313
B1934064214597N12301369WA0117501171000100034311312
B1934074214600N12301374WA0117201169000100033311316
B1934084214604N12301379WA0117001167000100031314318
B1934094214607N12301383WA0116801165000100031319315
B1934104214611N12301388WA0116501163000100034322314
B1934114214615N12301392WA0116301160000100036319311
B1934124214619N12301397WA0116101158000100035314307
B1934134214623N12301402WA0115901156000100033315316
B1934144214626N12301406WA0115801155000100029319318
B1934154214629N12301409WA0115701154000100026322314
B1934164214632N12301412WA0115501152000100024323314
B1934174214635N12301415WA0115101150000100026321307
B1934184214638N12301419WA0114901148000100028318306
B1934194214641N12301423WA0114901146000100029312310
B1934204214644N12301428WA0114701145000100029304304
B1934214214646N12301433WA0114601144000100028299309
B1934224214648N12301438WA0114501143000100027296303
B1934234214650N12301443WA0114401141000100028297310
B1934244214652N12301448WA0114301139000100030303317
B1934254214655N12301453WA0114001137000100032309304
B1934264214658N12301458WA0113901136000100033309296
B1934274214661N12301463WA0113801135000100033302304
B1934284214664N12301469WA0113701133000100033297308
B1934294214666N12301475WA0113501132000100033302313
B1934304214669N12301480WA0113401131000100033308303
B1934314214672N12301485WA0113301131000100034308296
B1934324214675N12301491WA0113101128000100036302295
B1934334214678N12301498WA0113101127000100038300307
B1934344214681N12301504WA0113001127000100038303315
B1934354214684N12301511WA0113001127000100036302299
B1934364214686N12301517WA0113101128000100032296289
B1934374214688N12301523WA0113101128000100031283296
B1934384214689N12301529WA0113001127000100033274308
B1934394214689N12301536WA0112801126000100033279307
B1934404214690N12301542WA0112701125000100034289306
B1934414214692N12301549WA0112601124000100036295299
B1934424214695N12301556WA0112701123000100034294303
B1934434214697N12301562WA0112801123000100030291304
B1934444214698N12301567WA0112801124000100024286316
B1934454214699N12301571WA0112701124000100021289307
B1934464214700N12301575WA0112501122000100024294311
B1934474214702N12301580WA0112301121000100029294309
B1934484214703N12301585WA0112301120000100031293308
B1934494214705N12301591WA0112301120000100031295316
B1934504214708N12301596WA0112301120000100030301319
B1934514214710N12301601WA0112301120000100027306312
B1934524214712N12301605WA0112301120000100026303309
B1934534214714N12301610WA0112201119000100027301308
B1934544214717N12301614WA0112101118000100030301312
B1934554214719N12301620WA0111901116000100032305303
B1934564214722N12301625WA0111801115000100032305299
B1934574214724N12301631WA0111801114000100032296292
B1934584214726N12301637WA0111601113000100034287298
B1934594214728N12301643WA0111401110000100035290313
B1935004214730N12301650WA0111201109000100037302311
B1935014214733N12301656WA0111101108000100037310308
B1935024214737N12301661WA0111101107000100035307301
B1935034214739N12301667WA0111001106000100033301307
B1935044214742N12301672WA0110901105000100030301310
B1935054214745N12301677WA0110701104000100030306309
B1935064214747N12301682WA0110401102000100032310304
B1935074214751N12301687WA0110201099000100035309305
B1935084214754N12301693WA0110101097000100035307312
B1935094214757N12301698WA0109901096000100034309315
B1935104214761N12301703WA0109701094000100034312312
B1935114214764N12301708WA0109501092000100033314314
B1935124214768N12301713WA0109401090000100034314313
B1935134214771N12301718WA0109201088000100035314309
B1935144214775N12301724WA0109101086000100036312312
B1935154214779N12301729WA0108901084000100036311310
B1935164214782N12301734WA0108701083000100036311312
B1935174214786N12301740WA0108501081000100034314318
B1935184214790N12301744WA0108401079000100032316320
B1935194214793N12301749WA0108201077000100031318318
B1935204214797N12301753WA0108001076000100032320319
B1935214214800N12301757WA0107801073000100034320322
B1935224214804N12301761WA0107601071000100035321322
B1935234214809N12301766WA0107301069000100036322326
B1935244214813N12301770WA0107201067000100037323324
B1935254214817N12301775WA0107101065000100038322323
B1935264214822N12301780WA0107001064000100037320323
B1935274214826N12301785WA0106901064000100035317319
B1935284214830N12301789WA0106901063000100033316323
B1935294214833N12301794WA0106701061000100034316323
B1935304214837N12301799WA0106601060000100036316317
B1935314214841N12301804WA0106701059000100034315322
B1935324214844N12301808WA0106701059000100032315330
B1935334214848N12301812WA0106901060000100030319337
B1935344214851N12301816WA0107001062000100028320316
B1935354214854N12301819WA0107301064000100025314316
B1935364214857N12301823WA0107501066000100022303336
B1935374214858N12301826WA0107501066000100019300336
B1935384214860N12301830WA0107501066000100019311337
B1935394214862N12301832WA0107501067000100024322324
B1935404214866N12301836WA0107501067000100032320334
B1935414214869N12301840WA0107901069000100031317326
B1935424214872N12301844WA0108301071000100026317324
B1935434214875N12301847WA0108601074000100022317322
B1935444214877N12301850WA0108701076000100019318325
B1935454214879N12301852WA0108701077000100022322320
B1935464214882N12301855WA0108701079000100029324318
B1935474214886N12301858WA0109001081000100030327326
B1935484214890N12301861WA0109201084000100026330334
B1935494214893N12301863WA0109501086000100020329307
B1935504214895N12301865WA0109601088000100015326312
B1935514214896N12301867WA0109601089000100015318316
B1935524214898N12301869WA0109501089000100019314325
B1935534214900N12301872WA0109501090000100025317323
B1935544214904N12301876WA0109401089000100029325337
B1935554214907N12301879WA0109501090000100026333340
B1935564214911N12301881WA0109501090000100025337345
B1935574214915N12301883WA0109401090000100027340001
B1935584214919N12301885WA0109301090000100030346356
B1935594214923N12301886WA0109201089000100033354359
B1936004214928N12301886WA0109201089000100036356342
B1936014214934N12301886WA0109301090000100036354345
B1936024214939N12301887WA0109601091000100037350332
B1936034214945N12301889WA0109901092000100035346303
B1936044214949N12301891WA0110401095000100032342330
B1936054214953N12301893WA0110901098000100028333334
B1936064214956N12301896WA0111201101000100024325337
B1936074214959N12301899WA0111401103000100024322336
B1936084214962N12301902WA0111601106000100028326337
B1936094214965N12301905WA0111701108000100030325344
B1936104214969N12301909WA0111901112000100029328357
B1936114214973N12301911WA0112201114000100027338000
B1936124214976N12301913WA0112301116000100026348016
B1936134214980N12301913WA0112401118000100028002019
B1936144214985N12301911WA0112501120000100031019025
B1936154214989N12301908WA0112601121000100032034053
B1936164214991N12301902WA0112601122000100032055053
B1936174214993N12301895WA0112701123000100032069069
B1936184214993N12301887WA0112601124000100036087081
B1936194214990N12301878WA0112501125000100041110094
B1936204214986N12301870WA0112701126000100044124111
B1936214214981N12301864WA0112901127000100043136127
B1936224214975N12301859WA0112901128000100041150142
B1936234214969N12301856WA0112901128000100040160154
B1936244214962N12301855WA0112901128000100041171166
B1936254214956N12301855WA0113001129000100043187180
B1936264214949N12301859WA0113101129000100042205198
B1936274214944N12301864WA0113401130000100040218218
B1936284214942N12301873WA0113801132000100037248231
B1936294214941N12301880WA0114201136000100035254267
B1936304214940N12301887WA0114501139000100031261278
B1936314214940N12301893WA0114901141000100026274287
B1936324214942N12301898WA0115101144000100026295299
B1936334214944N12301902WA0115301145000100027314314
B1936344214948N12301905WA0115401147000100027336331
B1936354214953N12301903WA0115601149000100031017347
B1936364214958N12301899WA0115801152000100033036019
B1936374214961N12301893WA0115601153000100033063035
B1936384214960N12301884WA0115401154000100035092057
B1936394214955N12301876WA0115401154000100037125085
B1936404214948N12301871WA0115601155000100040152120
B1936414214939N12301871WA0115901157000100042183153
B1936424214931N12301874WA0116301159000100044187188
B1936434214924N12301877WA0116701161000100040197193
B1936444214919N12301881WA0117101165000100038208206
B1936454214915N12301885WA0117201168000100035220219
B1936464214911N12301890WA0117501169000100035232232
B1936474214909N12301897WA0117801172000100033249245
B1936484214908N12301903WA0118001175000100031264262
B1936494214908N12301909WA0118201178000100027267276
B1936504214908N12301914WA0118401180000100023264283
B1936514214908N12301919WA0118601182000100027265284
B1936524214908N12301925WA0118701184000100030272300
B1936534214909N12301931WA0118901186000100031288314
B1936544214911N12301936WA0119101188000100029304328
B1936554214914N12301939WA0119301190000100025318341
B1936564214918N12301938WA0119301192000100016354351
B1936574214919N12301932WA0119501195000100016082013
B1936584214918N12301923WA0119901198000100029115072
B1936594214915N12301916WA0120201201000100031135113
B1937004214909N12301911WA0120401202000100032159135
B1937014214903N12301910WA0120601204000100035190163
B1937024214898N12301912WA0120901207000100035203203
B1937034214894N12301916WA0121101208000100033217221
B1937044214891N12301921WA0121201210000100032233235
B1937054214889N12301926WA0121401212000100031248250
B1937064214888N12301932WA0121601214000100030264266
B1937074214889N12301938WA0121701216000100030281279
B1937084214891N12301944WA0121901218000100031296293
B1937094214894N12301949WA0122001220000100032307308
B1937104214897N12301953WA0122301222000100030320316
B1937114214901N12301955WA0122501224000100028342328
B1937124214906N12301954WA0122501225000100029019345
B1937134214909N12301948WA0122501226000100034056015
B1937144214912N12301942WA0122401227000100035065049
B1937154214912N12301933WA0122501228000100040087057
B1937164214910N12301924WA0122801229000100041104080
B1937174214906N12301916WA0123101230000100043124097
B1937184214901N12301911WA0123401232000100040140119
B1937194214895N12301908WA0123701234000100035160137
B1937204214889N12301908WA0123901237000100036176161
B1937214214884N12301909WA0124001239000100037189184
B1937224214878N12301912WA0124101240000100039198201
B1937234214873N12301915WA0124301242000100039210214
B1937244214868N12301921WA0124501244000100038223227
B1937254214865N12301927WA0124601246000100034237239
B1937264214864N12301933WA0124601248000100030250253
B1937274214864N12301939WA0124701248000100030266265
B1937284214864N12301946WA0124801249000100032273282
B1937294214865N12301952WA0124801250000100034272292
B1937304214865N12301959WA0125001251000100035273290
B1937314214866N12301966WA0125101251000100033285295
B1937324214868N12301972WA0124901252000100031295307
B1937334214871N12301976WA0125001252000100030316312
B1937344214877N12301977WA0125101252000100030348327
B1937354214882N12301977WA0125201254000100029000349
B1937364214886N12301976WA0125301255000100023008002
B1937374214889N12301975WA0125401255000100022010007
B1937384214893N12301974WA0125301254000100024015017
B1937394214896N12301972WA0125201253000100026024021
B1937404214900N12301970WA0125101252000100030029033
B1937414214904N12301966WA0125001252000100030038044
B1937424214907N12301962WA0124901251000100030050048
B1937434214909N12301957WA0124801250000100030068055
B1937444214910N12301950WA0124701250000100033084071
B1937454214909N12301943WA0124601249000100036103083
B1937464214906N12301936WA0124501248000100039118103
B1937474214901N12301930WA0124401247000100042135118
B1937484214896N12301925WA0124401247000100043147138
B1937494214889N12301921WA0124601247000100044157152
B1937504214882N12301919WA0124601247000100043168167
B1937514214876N12301919WA0124901248000100040178182
B1937524214870N12301921WA0125001249000100038190196
B1937534214864N12301924WA0125101250000100037200209
B1937544214860N12301928WA0125201250000100037211219
B1937554214856N12301934WA0125201251000100038225229
B1937564214854N12301941WA0125301251000100037243243
B1937574214853N12301948WA0125301252000100035259260
B1937584214853N12301955WA0125401253000100032272276
B1937594214854N12301960WA0125501254000100025290288
B1938004214857N12301963WA0125501254000100020319304
B1938014214860N12301962WA0125401254000100021358327
B1938024214865N12301959WA0125401254000100028026357
B1938034214868N12301954WA0125401254000100029051020
B1938044214869N12301947WA0125401254000100033080042
B1938054214868N12301939WA0125401253000100035104070
B1938064214862N12301932WA0125301253000100042140096
B1938074214855N12301928WA0125401253000100042162138
B1938084214848N12301929WA0125501254000100043185163
B1938094214841N12301933WA0125601255000100041208190
B1938104214836N12301940WA0125601256000100039225217
B1938114214833N12301947WA0125701256000100036238235
B1938124214832N12301954WA0125701257000100035253249
B1938134214831N12301962WA0125601256000100036259268
B1938144214831N12301969WA0125501255000100037267278
B1938154214831N12301977WA0125601255000100035274286
B1938164214832N12301983WA0125801256000100032283292
B1938174214834N12301989WA0126001257000100028293303
B1938184214836N12301993WA0126101258000100024301313
B1938194214838N12301997WA0126001259000100024303315
B1938204214840N12302001WA0125901259000100025303317
B1938214214843N12302006WA0125801258000100028308318
B1938224214846N12302010WA0125601256000100031309321
B1938234214849N12302016WA0125601255000100034307318
B1938244214852N12302021WA0125701255000100034307326
B1938254214855N12302026WA0125701256000100033312320
B1938264214859N12302031WA0125601255000100031318328
B1938274214862N12302034WA0125601255000100029324333
B1938284214866N12302038WA0125401254000100030329326
B1938294214870N12302041WA0125401253000100033327325
B1938304214874N12302045WA0125401253000100036322323
B1938314214878N12302049WA0125601253000100033318330
B1938324214882N12302053WA0125601254000100030319328
B1938334214885N12302057WA0125601254000100029324324
B1938344214889N12302060WA0125501254000100030327325
B1938354214893N12302064WA0125301253000100035327326
B1938364214897N12302068WA0125501253000100038325330
B1938374214902N12302072WA0125701254000100035326326
B1938384214906N12302076WA0125801255000100030323323
B1938394214909N12302079WA0125801256000100026318324
B1938404214912N12302083WA0125701256000100026316327
B1938414214915N12302087WA0125301255000100029315328
B1938424214918N12302091WA0125201253000100033318316
B1938434214922N12302096WA0125001252000100036320319
B1938444214926N12302101WA0125201252000100035317324
B1938454214930N12302105WA0125401253000100029317332
B1938464214933N12302108WA0125301253000100024325327
B1938474214936N12302111WA0125301252000100023328320
B1938484214939N12302114WA0125001251000100026326317
B1938494214942N12302117WA0124801249000100031319314
B1938504214946N12302121WA0124601248000100032318326
B1938514214949N12302125WA0124501247000100030325330
B1938524214953N12302128WA0124501246000100028332319
B1938534214957N12302131WA0124401245000100025331316
B1938544214960N12302134WA0124201244000100026323319
B1938554214963N12302137WA0124101242000100029316325
B1938564214966N12302142WA0123901241000100032316321
B1938574214970N12302146WA0123901240000100033319325
B1938584214974N12302150WA0123901240000100031319318
B1938594214977N12302154WA0124001240000100028316314
B1939004214980N12302158WA0124001240000100026314321
B1939014214983N12302162WA0123901239000100027316319
B1939024214986N12302166WA0123701239000100030318322
B1939034214989N12302170WA0123701238000100033319327
B1939044214993N12302174WA0123701238000100033321323
B1939054214997N12302178WA0123801238000100030321322
B1939064215001N12302182WA0123801238000100029319322
B1939074215004N12302186WA0123801238000100030319321
B1939084215008N12302190WA0123801238000100032318318
B1939094215011N12302194WA0123701238000100035316319
B1939104215015N12302199WA0123801238000100038316329
B1939114215019N12302205WA0123801239000100036317323
B1939124215023N12302209WA0123801239000100033316320
B1939134215027N12302214WA0123801239000100032315317
B1939144215030N12302218WA0123701239000100033315319
B1939154215034N12302223WA0123601238000100036316324
B1939164215038N12302228WA0123601238000100038319326
B1939174215042N12302233WA0123401237000100038322321
B1939184215047N12302238WA0123501236000100037322316
B1939194215051N12302242WA0123401236000100036319317
B1939204215055N12302247WA0123401236000100036316316
B1939214215059N12302253WA0123401236000100036313315
B1939224215063N12302258WA0123301235000100035315321
B1939234215066N12302263WA0123201234000100034319322
B1939244215071N12302267WA0123101233000100034323319
B1939254215075N12302271WA0122901231000100036323318
B1939264215079N12302276WA0122701230000100039321319
B1939274215084N12302281WA0122701229000100040319324
B1939284215088N12302286WA0122801229000100036320321
B1939294215092N12302290WA0122701228000100032320317
B1939304215095N12302294WA0122601228000100029320316
B1939314215099N12302298WA0122501226000100031318316
B1939324215103N12302303WA0122301224000100035318320
B1939334215106N12302307WA0122101222000100036317322
B1939344215111N12302312WA0122001221000100038317321
B1939354215115N12302318WA0122001220000100035315317
B1939364215118N12302323WA0121901220000100032312323
B1939374215121N12302327WA0121801218000100031312329
B1939384215125N12302332WA0121601217000100031316327
B1939394215128N12302336WA0121501215000100033321323
B1939404215132N12302340WA0121401214000100034322331
B1939414215136N12302345WA0121401214000100034321328
B1939424215140N12302349WA0121701215000100032323342
B1939434215144N12302352WA0121801217000100027324341
B1939444215147N12302355WA0121801217000100024323334
B1939454215150N12302358WA0121701217000100026321325
B1939464215153N12302362WA0121601216000100029317324
B1939474215156N12302366WA0121601216000100032313330
B1939484215160N12302371WA0121601216000100031311321
B1939494215162N12302375WA0121601216000100025314328
B1939504215165N12302378WA0121501216000100022318322
B1939514215168N12302381WA0121501215000100025324327
B1939524215171N12302384WA0121501215000100031325332
B1939534215175N12302388WA0121601216000100032327344
B1939544215179N12302391WA0122001217000100030329334
B1939554215183N12302393WA0122401219000100026332336
B1939564215186N12302395WA0122601222000100023337325
B1939574215189N12302396WA0122701224000100021337333
B1939584215192N12302398WA0122901226000100023332323
B1939594215195N12302401WA0122901228000100027326333
B1940004215199N12302404WA0123101230000100030322323
B1940014215202N12302408WA0123501232000100030325327
B1940024215206N12302411WA0123801235000100027333322
B1940034215210N12302413WA0124001238000100026336321
B1940044215213N12302415WA0124301240000100026329319
B1940054215216N12302418WA0124501243000100027320319
B1940064215219N12302422WA0124701245000100028324345
B1940074215223N12302424WA0124901247000100028337359
B1940084215227N12302425WA0125101250000100028353017
B1940094215232N12302424WA0125201252000100032014032
B1940104215237N12302420WA0125301254000100034031054
B1940114215241N12302414WA0125301256000100034049066
B1940124215241N12302406WA0125301256000100038086079
B1940134215239N12302397WA0125301257000100038106105
B1940144215235N12302390WA0125601258000100038125123
B1940154215230N12302388WA0125901259000100030158139
B1940164215223N12302390WA0126001262000100033190170
B1940174215218N12302395WA0126201263000100031214203
B1940184215215N12302400WA0126201264000100028228235
B1940194215213N12302405WA0126301264000100028239252
B1940204215211N12302411WA0126301265000100030251263
B1940214215211N12302417WA0126401266000100031267273
B1940224215212N12302424WA0126601266000100034283280
B1940234215214N12302431WA0126901268000100034293291
B1940244215216N12302436WA0127001271000100031302297
B1940254215220N12302441WA0127201273000100031313306
B1940264215224N12302445WA0127501274000100033327314
B1940274215229N12302448WA0127501276000100036337327
B1940284215234N12302450WA0127601277000100038348336
B1940294215240N12302450WA0127901279000100037004347
B1940304215246N12302446WA0128101281000100036021002
B1940314215248N12302439WA0128101283000100033059019
B1940324215248N12302431WA0128301284000100034098059
B1940334215246N12302423WA0128601287000100034113106
B1940344215242N12302418WA0128801289000100033128123
B1940354215238N12302415WA0128901291000100031151138
B1940364215232N12302415WA0129001292000100036185163
B1940374215226N12302417WA0129101294000100039194196
B1940384215220N12302421WA0129401295000100041208207
B1940394215215N12302427WA0129501297000100043225220
B1940404215211N12302434WA0129501298000100043235237
B1940414215210N12302443WA0129701300000100039254246
B1940424215210N12302451WA0129801302000100036272263
B1940434215213N12302458WA0129901303000100035289278
B1940444215217N12302463WA0130001304000100033307293
B1940454215221N12302468WA0130101304000100033315312
B1940464215225N12302473WA0130201306000100035316326
B1940474215229N12302478WA0130401308000100036319334
B1940484215233N12302482WA0130601309000100033329340
B1940494215238N12302484WA0130801311000100032342348
B1940504215242N12302484WA0131001312000100029008000
B1940514215246N12302481WA0131201314000100026029022
B1940524215248N12302475WA0131201315000100024068040
B1940534215246N12302469WA0131301317000100026102072
B1940544215243N12302463WA0131401318000100027128102
B1940554215239N12302460WA0131501319000100028151127
B1940564215233N12302459WA0131701320000100030176150
B1940574215228N12302460WA0131901321000100031188180
B1940584215224N12302463WA0132001323000100032205198
B1940594215220N12302467WA0132101325000100030220215
B1941004215217N12302472WA0132201325000100030229238
B1941014215215N12302477WA0132201326000100031241247
B1941024215213N12302483WA0132201327000100033252259
B1941034215213N12302490WA0132201328000100033273271
B1941044215216N12302498WA0132201328000100036296291
B1941054215221N12302504WA0132301329000100037315314
B1941064215227N12302506WA0132401330000100037337327
B1941074215233N12302508WA0132401331000100037349346
B1941084215238N12302509WA0132601333000100035349355
B1941094215243N12302510WA0132801335000100033345002
B1941104215248N12302511WA0132901336000100028347354
B1941114215252N12302512WA0132901336000100030357357
B1941124215257N12302512WA0132801336000100032002006
B1941134215262N12302512WA0132801335000100038002357
B1941144215268N12302512WA0132901335000100040359359
B1941154215274N12302512WA0133001337000100036358350
B1941164215279N12302512WA0133101338000100034354348
B1941174215284N12302513WA0133301339000100035352348
B1941184215290N12302514WA0133501341000100036350344
B1941194215295N12302515WA0133701343000100035346349
B1941204215300N12302517WA0134101346000100033341345
B1941214215304N12302520WA0134401349000100033336338
B1941224215309N12302522WA0134501351000100029332348
B1941234215312N12302525WA0134601352000100027330331
B1941244215316N12302527WA0134601353000100028333335
B1941254215320N12302530WA0134701354000100031336339
B1941264215324N12302532WA0134801355000100034335338
B1941274215329N12302535WA0134901357000100034333342
B1941284215333N12302538WA0135101358000100033334340
B1941294215338N12302541WA0135201360000100031337348
B1941304215342N12302543WA0135401362000100031342349
B1941314215347N12302545WA0135701364000100033343340
B1941324215352N12302547WA0136001366000100036338346
B1941334215357N12302550WA0136301369000100036339010
B1941344215362N12302552WA0136601372000100034350027
B1941354215367N12302552WA0136701374000100035358037
B1941364215372N12302548WA0136801375000100035032047
B1941374215375N12302542WA0136801377000100035052070
B1941384215376N12302534WA0137001378000100031074086
B1941394215374N12302528WA0137201379000100030118101
B1941404215370N12302523WA0137301380000100028139135
B1941414215365N12302521WA0137401382000100029163150
B1941424215360N12302523WA0137701384000100028190171
B1941434215356N12302528WA0138001387000100030225195
B1941444215353N12302534WA0138201389000100031244227
B1941454215353N12302540WA0138501390000100032262248
B1941464215353N12302547WA0138601393000100034277267
B1941474215355N12302554WA0138901395000100035288286
B1941484215357N12302561WA0139001396000100036298306
B1941494215360N12302567WA0139201398000100037311313
B1941504215365N12302572WA0139401399000100037324325
B1941514215370N12302574WA0139401401000100037344341
B1941524215376N12302574WA0139501403000100036000358
B1941534215381N12302572WA0139601404000100034013011
B1941544215385N12302568WA0139401405000100030028025
B1941554215388N12302563WA0139101404000100028043039
B1941564215388N12302556WA0139001403000100028087052
B1941574215386N12302550WA0138701401000100030103091
B1941584215383N12302544WA0138701399000100031119106
B1941594215379N12302539WA0138601397000100031139120
B1942004215374N12302537WA0138401397000100032160139
B1942014215368N12302537WA0138501397000100035184158
B1942024215362N12302541WA0138801396000100038202181
B1942034215356N12302546WA0138901396000100039214200
B1942044215352N12302552WA0139101397000100037229211
B1942054215350N12302559WA0139201398000100035245226
B1942064215350N12302566WA0139301399000100032263244
B1942074215351N12302572WA0139401400000100031280262
B1942084215354N12302578WA0139301400000100031297280
B1942094215358N12302584WA0139301399000100036314298
B1942104215362N12302589WA0139301400000100037311315
B1942114215366N12302595WA0139401401000100036303313
B1942124215368N12302601WA0139401401000100033297315
B1942134215371N12302607WA0139201400000100032299310
B1942144215373N12302613WA0139001398000100032301315
B1942154215376N12302618WA0138801396000100035306316
B1942164215380N12302624WA0138501394000100038309322
B1942174215384N12302630WA0138301392000100040310324
B1942184215388N12302636WA0138201391000100040310321
B1942194215392N12302642WA0138101390000100038313332
B1942204215396N12302647WA0138001389000100033317326
B1942214215399N12302651WA0137901387000100032319329
B1942224215403N12302656WA0137701385000100034315335
B1942234215407N12302661WA0137601383000100039313342
B1942244215411N12302666WA0137501382000100040319345
B1942254215416N12302671WA0137601380000100038327335
B1942264215421N12302674WA0137701380000100033333329
B1942274215425N12302677WA0137901381000100031329327
B1942284215428N12302680WA0138001381000100029319339
B1942294215431N12302684WA0138001382000100027312351
B1942304215434N12302687WA0138001382000100025324335
B1942314215437N12302689WA0138001382000100024334332
B1942324215440N12302692WA0137801381000100025330335
B1942334215443N12302695WA0137701380000100026320344
B1942344215446N12302698WA0137601380000100030321342
B1942354215450N12302702WA0137601380000100032326341
B1942364215454N12302705WA0137801380000100030328336
B1942374215457N12302708WA0138001382000100026327338
B1942384215460N12302710WA0138301383000100021315331
B1942394215462N12302713WA0138201384000100020312331
B1942404215464N12302716WA0138101383000100022317344
B1942414215467N12302719WA0138001383000100027322340
B1942424215470N12302723WA0138101384000100029320343
B1942434215473N12302726WA0138301385000100028322339
B1942444215477N12302729WA0138501387000100027330339
B1942454215480N12302732WA0138601389000100025335011
B1942464215483N12302733WA0138801392000100024335341
B1942474215487N12302735WA0139101394000100026339348
B1942484215491N12302737WA0139201396000100028338345
B1942494215495N12302739WA0139401400000100028337359
B1942504215498N12302741WA0139801403000100024337002
B1942514215501N12302742WA0139901404000100021350020
B1942524215504N12302742WA0139901406000100021005021
B1942534215508N12302740WA0140001408000100024023038
B1942544215510N12302737WA0140001409000100025042058
B1942554215512N12302731WA0140301411000100029073071
B1942564215512N12302724WA0140301412000100030086099
B1942574215508N12302717WA0140201412000100039127111
B1942584215502N12302711WA0140201413000100040141140
B1942594215496N12302709WA0140301413000100038170156
B1943004215488N12302712WA0140301413000100042195181
B1943014215482N12302717WA0140301413000100043216205
B1943024215478N12302725WA0140301413000100040230225
B1943034215478N12302733WA0140401414000100034268239
B1943044215479N12302740WA0140501415000100033283275
B1943054215481N12302745WA0140501415000100029297288
B1943064215484N12302750WA0140601416000100028304303
B1943074215486N12302755WA0140801418000100027301314
B1943084215488N12302760WA0141001419000100027300316
B1943094215490N12302765WA0141201421000100027300315
B1943104215493N12302770WA0141401422000100028298319
B1943114215495N12302775WA0141501424000100026299324
B1943124215497N12302779WA0141601425000100023309326
B1943134215499N12302781WA0141801426000100020330333
B1943144215502N12302782WA0141801427000100021340351
B1943154215505N12302780WA0141901428000100018020001
B1943164215507N12302777WA0142001429000100017049034
B1943174215508N12302773WA0142001430000100020061060
B1943184215508N12302768WA0141801430000100020080071
B1943194215505N12302761WA0141801430000100036116085
B1943204215501N12302753WA0141701430000100041128121
B1943214215496N12302746WA0141801429001100043137134
B1943224215489N12302742WA0141801429000100041159141
B1943234215482N12302741WA0141801429000100043172162
B1943244215474N12302742WA0141801429000100045191174
B1943254215467N12302746WA0141901430000100044203192
B1943264215462N12302753WA0142001430000100044220206
B1943274215460N12302761WA0142001429000100040238222
B1943284215459N12302770WA0142201429000100037262241
B1943294215460N12302777WA0142301429000100035279268
B1943304215463N12302784WA0142501430000100032294286
B1943314215465N12302789WA0142801432000100027305302
B1943324215469N12302792WA0142901433000100023324315
B1943334215472N12302793WA0143001434000100020346337
B1943344215475N12302792WA0143001435000100016010359
B1943354215477N12302790WA0143001437000100017040022
B1943364215479N12302786WA0143001437000100020055048
B1943374215480N12302781WA0142901437000100027072066
B1943384215480N12302774WA0142901437000100032087084
B1943394215479N12302766WA0143001437000100034099098
B1943404215476N12302759WA0143101438000100035117108
B1943414215471N12302753WA0143101438000100037139122
B1943424215464N12302750WA0143101438000100041158138
B1943434215455N12302749WA0143001438000100047177158
B1943444215447N12302749WA0143101439000100047185179
B1943454215440N12302751WA0143001439000100046194189
B1943464215434N12302755WA0142901438000100046203198
B1943474215428N12302760WA0142901438000100047213206
B1943484215423N12302768WA0142801437000100046228219
B1943494215421N12302777WA0142701436000100043245234
B1943504215420N12302786WA0142701436000100042257251
B1943514215421N12302795WA0142801435000100040271264
B1943524215423N12302803WA0142901435000100040276279
B1943534215426N12302810WA0143201436000100036282284
B1943544215428N12302816WA0143401438000100032291292
B1943554215431N12302822WA0143301438000100032298302
B1943564215434N12302828WA0143301438000100036302314
B1943574215438N12302834WA0143301438000100041310322
B1943584215442N12302840WA0143301438000100040316331
B1943594215447N12302845WA0143601439000100037322335
B1944004215451N12302848WA0143701440000100030331339
B1944014215455N12302849WA0143701442000100026341343
B1944024215459N12302850WA0143701442000100028337342
B1944034215463N12302853WA0143801443000100033331344
B1944044215468N12302856WA0143901444000100034332346
B1944054215472N12302859WA0144001445000100033337352
B1944064215477N12302860WA0144001446001100026348348
B1944074215480N12302861WA0144001447000100022355341
B1944084215483N12302861WA0143801447000100021353340
B1944094215486N12302862WA0143501446000100022345340
B1944104215490N12302864WA0143301444000100029339346
B1944114215495N12302866WA0143101442000100034340339
B1944124215500N12302868WA0143101441000100031343333
B1944134215504N12302870WA0143001441000100027339330
B1944144215508N12302872WA0142901440000100027332334
B1944154215511N12302875WA0142701438000100027329340
B1944164215515N12302878WA0142401435000100029331330
B1944174215519N12302881WA0142001432000100031334328
B1944184215523N12302883WA0141701429000100035335338
B1944194215528N12302887WA0141701427000100035333333
B1944204215533N12302890WA0141601426000100034332330
B1944214215537N12302893WA0141701425000100031328335
B1944224215541N12302896WA0141701425000100027328342
B1944234215544N12302899WA0141501424000100026330348
B1944244215548N12302902WA0141401422000100030329333
B1944254215552N12302905WA0141401422000100035324330
B1944264215556N12302910WA0141401421000100037321335
B1944274215561N12302914WA0141601422000100035323339
B1944284215565N12302919WA0141801423000100034325342
B1944294215569N12302922WA0141901423000100031333343
B1944304215573N12302924WA0141901423000100032342344
B1944314215578N12302926WA0141801424000100036345329
B1944324215583N12302928WA0142001425000100036339337
B1944334215588N12302930WA0142201427000100035335343
B1944344215593N12302933WA0142401429000100032333336
B1944354215597N12302936WA0142801432000100029336343
B1944364215601N12302938WA0143001436000100029338324
B1944374215605N12302940WA0143201438000100030335333
B1944384215609N12302943WA0143301440000100029329331
B1944394215613N12302946WA0143501442000100026324327
B1944404215616N12302949WA0143501443000100027326327
B1944414215620N12302952WA0143501443000100031328328
B1944424215624N12302956WA0143501444000100038329334
B1944434215629N12302960WA0143701445000100040325339
B1944444215634N12302965WA0143901447000100039320343
B1944454215638N12302971WA0144201449000100036317340
B1944464215642N12302975WA0144401451000100034324343
B1944474215647N12302979WA0144501453000100035323331
B1944484215651N12302984WA0144701455000100035316323
B1944494215655N12302989WA0144901457000100037315332
B1944504215659N12302994WA0145101459000100039317340
B1944514215663N12302999WA0145401462000100037319338
B1944524215667N12303004WA0145601465000100036321328
B1944534215671N12303008WA0146001469000100032318338
B1944544215674N12303012WA0146401472000100027314339
B1944554215677N12303016WA0146601475000100025320348
B1944564215680N12303019WA0146801478000100026331011
B1944574215684N12303020WA0146801479000100026339034
B1944584215687N12303020WA0147001481000100024005036
B1944594215690N12303015WA0147201483000100027053056
B1945004215692N12303009WA0147201485000100027078080
B1945014215691N12303003WA0147601487000100027102094
B1945024215687N12302998WA0147701489000100027129110
B1945034215682N12302995WA0147901490000100034164128
B1945044215677N12302995WA0147901491000100035175162
B1945054215670N12302996WA0148101492000100041190175
B1945064215664N12302999WA0148201494000100042203194
B1945074215658N12303005WA0148501495000100043217208
B1945084215654N12303012WA0148601496000100041231225
B1945094215652N12303020WA0148601498000100038248240
B1945104215654N12303029WA0148801499000100040285259
B1945114215657N12303036WA0149201499000100041298298
B1945124215661N12303043WA0149201502000100037307313
B1945134215665N12303047WA0149501504000100032331323
B1945144215670N12303049WA0149801506000100031349347
B1945154215674N12303048WA0149901508000100027007003
B1945164215678N12303045WA0150101511000100027030018
B1945174215680N12303040WA0150301512000100026056036
B1945184215681N12303033WA0150301514000100026074056
B1945194215679N12303027WA0150601515000100028101070
B1945204215677N12303021WA0150901518000100030124092
B1945214215673N12303017WA0151101520000100028141111
B1945224215668N12303015WA0151201522000100028159125
B1945234215663N12303014WA0151401524000100032174143
B1945244215656N12303016WA0151301525000100041193161
B1945254215650N12303020WA0151401525000100043206186
B1945264215644N12303026WA0151701528000100046221201
B1945274215641N12303034WA0151801530000100044240219
B1945284215639N12303043WA0152001531000100043252242
B1945294215639N12303051WA0152001532000100038263257
B1945304215641N12303058WA0152001533000100036277271
B1945314215644N12303065WA0152201533000100036295288
B1945324215648N12303071WA0152201534000100039308308
B1945334215652N12303077WA0152401536000100039314320
B1945344215657N12303082WA0152701538000100038321327
B1945354215661N12303085WA0153001540000100033332334
B1945364215666N12303087WA0153101543000100030345346
B1945374215670N12303086WA0153201544000100030011359
B1945384215674N12303083WA0153401547000100028031021
B1945394215678N12303078WA0153701549000100026045037
B1945404215679N12303073WA0154001549000100023077049
B1945414215677N12303068WA0154301554000100027122072
B1945424215674N12303064WA0154301556000100028142108
B1945434215669N12303062WA0154601557000100029159126
B1945444215663N12303062WA0154801560000100036190142
B1945454215657N12303065WA0155001562000100039199178
B1945464215652N12303071WA0155001564000100043220189
B1945474215648N12303079WA0155201566000100044237215
B1945484215646N12303089WA0155501567000100045254236
B1945494215647N12303099WA0155601567000100044269257
B1945504215650N12303108WA0155901571000100042284276
B1945514215653N12303115WA0156101573000100038297293
B1945524215657N12303120WA0156301575000100033312309
B1945534215662N12303123WA0156501575000100031329327
B1945544215667N12303124WA0156601578000100030359345
B1945554215671N12303123WA0156701579000100027013012
B1945564215674N12303119WA0156801580000100023039024
B1945574215675N12303115WA0157101582000100021068046
B1945584215675N12303109WA0157401584000100021089067
B1945594215673N12303104WA0157601587000100022116082
B1946004215669N12303100WA0157801589000100025141102
B1946014215666N12303098WA0158001591000100026155123
B1946024215661N12303097WA0158001593000100030179136
B1946034215655N12303101WA0158201594000100042206161
B1946044215649N12303107WA0158401596000100049223197
B1946054215645N12303116WA0158701598000100045242218
B1946064215643N12303125WA0159101601000100042250241
B1946074215642N12303133WA0159101601000100039260251
B1946084215644N12303141WA0159201605000100039271265
B1946094215645N12303149WA0159201606000100041279284
B1946104215648N12303157WA0159201608000100042288295
B1946114215650N12303165WA0159401609000100040296304
B1946124215653N12303172WA0159401610000100037303312
B1946134215657N12303177WA0159401611000100036315321
B1946144215662N12303180WA0159401611000100033333332
B1946154215667N12303182WA0159501612000100031344354
B1946164215672N12303183WA0159501612000100031352007
B1946174215677N12303183WA0159601613000100031359021
B1946184215682N12303183WA0159801614000100029006028
B1946194215686N12303182WA0160001615000100028020036
B1946204215689N12303179WA0159901616000100027033050
B1946214215692N12303175WA0160001617000100026052056
B1946224215693N12303169WA0160101617000100028075068
B1946234215692N12303162WA0159901617000100029102084
B1946244215689N12303157WA0160001618000100031126101
B1946254215684N12303152WA0160201618000100032142118
B1946264215678N12303151WA0160301618000100034165131
B1946274215672N12303151WA0160401620000100036176156
B1946284215666N12303151WA0160501621000100036186170
B1946294215661N12303153WA0160701622000100038195186
B1946304215655N12303156WA0160701623000100043205203
B1946314215650N12303161WA0160701624000100044215221
B1946324215645N12303169WA0161001625000100047230230
B1946334215642N12303179WA0161301626000100045246246
B1946344215642N12303189WA0161301627000100044259262
B1946354215644N12303198WA0161401628000100042281272
B1946364215647N12303206WA0161501630000100040289299
B1946374215649N12303213WA0161701631000100036293305
B1946384215652N12303219WA0161901632000100034301311
B1946394215655N12303224WA0161901633000100033310321
B1946404215660N12303227WA0161701633000100033328330
B1946414215665N12303229WA0161701634000100034341350
B1946424215670N12303230WA0161701633000100032355002
B1946434215675N12303229WA0161701633000100029015014
B1946444215679N12303225WA0161601633000100031036030
B1946454215681N12303219WA0161501632000100031054045
B1946464215683N12303214WA0161701632000100029061060
B1946474215685N12303208WA0162001633000100025062066
B1946484215686N12303205WA0162101634000100019060071
B1946494215687N12303201WA0162001635000100020064071
B1946504215689N12303198WA0161801635000100020059077
B1946514215690N12303194WA0161601634000100022062083
B1946524215691N12303189WA0161501632000100027078084
B1946534215692N12303183WA0161601633000100029085095
B1946544215691N12303176WA0161701634000100029097103
B1946554215689N12303171WA0161801634000100029120107
B1946564215685N12303166WA0161801633000100031142121
B1946574215680N12303163WA0161801633000100036157134
B1946584215674N12303161WA0161801633000100037166153
B1946594215668N12303160WA0161901633000100037175166
B1947004215662N12303160WA0161801633000100039183180
B1947014215656N12303161WA0161701632000100040190189
B1947024215650N12303163WA0161601632000100042197194
B1947034215644N12303167WA0161501631000100043203208
B1947044215639N12303172WA0161501631000100043215219
B1947054215636N12303181WA0161601630000100042248229
B1947064215637N12303191WA0161601630000100044278265
B1947074215639N12303200WA0161501630000100041287295
B1947084215642N12303206WA0161501629000100036301303
B1947094215647N12303212WA0161401629000100037313321
B1947104215651N12303217WA0161301629000100041312329
B1947114215655N12303224WA0161401628000100043311330
B1947124215660N12303230WA0161401628000100043314336
B1947134215665N12303236WA0161701629000100043319337
B1947144215670N12303241WA0161901631000100041323340
B1947154215675N12303246WA0162001633000100036322342
B1947164215679N12303250WA0161901634000100036320341
B1947174215683N12303255WA0161701634000100036319337
B1947184215687N12303260WA0161401633000100039321339
B1947194215692N12303264WA0161101632000100040322344
B1947204215698N12303269WA0160901630000100045331342
B1947214215704N12303273WA0160801629000100047335345
B1947224215711N12303276WA0160801629000100044336343
B1947234215717N12303279WA0160801628000100040334349
B1947244215722N12303283WA0160601627000100039335349
B1947254215727N12303286WA0160301625000100041337346
B1947264215733N12303288WA0160001623000100041340343
B1947274215739N12303291WA0159701619000100045338336
B1947284215746N12303294WA0159501617000100046335340
B1947294215752N12303298WA0159601616000100043334340
B1947304215757N12303302WA0159501615000100040333346
B1947314215763N12303305WA0159501614000100036336344
B1947324215768N12303308WA0159301614000100036339347
B1947334215773N12303310WA0159101610000100039346347
B1947344215779N12303311WA0159001608000100043349341
B1947354215785N12303313WA0158901607000100042345340
B1947364215792N12303316WA0159001607000100041341340
B1947374215797N12303319WA0159101607000100037337345
B1947384215802N12303321WA0159101607000100036340343
B1947394215808N12303324WA0159001606000100035342338
B1947404215813N12303326WA0158901605000100037342339
B1947414215818N12303328WA0158901604000100039340333
B1947424215824N12303331WA0158801604000100041337349
B1947434215829N12303334WA0158901604000100040338350
B1947444215835N12303337WA0158901604000100037342347
B1947454215840N12303339WA0158801604000100036346349
B1947464215846N12303340WA0158801603000100038347344
B1947474215852N12303342WA0158501602000100041347343
B1947484215858N12303344WA0158401601000100041344340
B1947494215863N12303346WA0158301601000100038343340
B1947504215868N12303348WA0158201598000100037343342
B1947514215874N12303350WA0158101597000100037343332
B1947524215879N12303353WA0158101596000100036340338
B1947534215884N12303355WA0158001596000100034339341
B1947544215889N12303357WA0157901595000100031342347
B1947554215893N12303358WA0157701594000100031349338
B1947564215897N12303359WA0157501591000100030351338
B1947574215902N12303360WA0157101589000100033346343
B1947584215907N12303363WA0156801585000100035340346
B1947594215913N12303365WA0156401582000100042343346
B1948004215919N12303367WA0156001579000100044348353
B1948014215925N12303369WA0155901576000100044349344
B1948024215932N12303371WA0155901574000100042344338
B1948034215938N12303374WA0156001573000100041337340
B1948044215943N12303379WA0156101572000100038328344
B1948054215947N12303383WA0156001572000100034326344
B1948064215951N12303387WA0155901572000100032330335
B1948074215955N12303390WA0155901571000100033329322
B1948084215959N12303394WA0155901571000100033322332
B1948094215963N12303399WA0155901571000100034314342
B1948104215966N12303404WA0155901571000100032310347
B1948114215969N12303408WA0155901571000100029317354
B1948124215972N12303412WA0155801571000100028326339
B1948134215976N12303414WA0155701570000100030332342
B1948144215980N12303418WA0155601570000100033327341
B1948154215984N12303421WA0155801570000100033323332
B1948164215988N12303425WA0155901571000100030323343
B1948174215992N12303429WA0155901571000100027330342
B1948184215995N12303431WA0155701571000100026330353
B1948194215998N12303433WA0155401570000100025329334
B1948204216002N12303435WA0155201568000100027331344
B1948214216006N12303438WA0154901566000100031333344
B1948224216010N12303441WA0154701564000100032337339
B1948234216014N12303443WA0154501562000100032340342
B1948244216019N12303446WA0154401560000100031331331
B1948254216023N12303449WA0154301559000100032323344
B1948264216026N12303454WA0154301558000100031317345
B1948274216030N12303458WA0154301558000100031325336
B1948284216034N12303461WA0154101558000100032333344
B1948294216039N12303463WA0154001556000100034337338
B1948304216043N12303466WA0153901555000100034338333
B1948314216048N12303468WA0153801554000100033339354
B1948324216053N12303470WA0153801553000100034341348
B1948334216058N12303473WA0153601552000100036341354
B1948344216063N12303475WA0153601551000100036343348
B1948354216068N12303477WA0153501550000100036345340
B1948364216073N12303479WA0153401549000100036343338
B1948374216078N12303481WA0153301548000100036339337
B1948384216083N12303484WA0153201546000100036337342
B1948394216088N12303486WA0152901545000100035339332
B1948404216093N12303489WA0152801543000100034341340
B1948414216098N12303491WA0152601541000100033342332
B1948424216103N12303493WA0152501540000100033338330
B1948434216107N12303496WA0152301539000100034333343
B1948444216112N12303499WA0152201537000100038333342
B1948454216118N12303502WA0151901535000100043337342
B1948464216124N12303506WA0151901534000100045338340
B1948474216130N12303509WA0152101533000100043338332
B1948484216136N12303513WA0152201532000100041335331
B1948494216141N12303516WA0152201532000100035330338
B1948504216145N12303520WA0152001532000100036329348
B1948514216150N12303524WA0152101532000100042332345
B1948524216156N12303528WA0152301531000100043334345
B1948534216162N12303531WA0152401532000100043334336
B1948544216167N12303535WA0152701533000100040331338
B1948554216172N12303539WA0153001537000100039327340
B1948564216177N12303543WA0153201539000100040331343
B1948574216183N12303547WA0153301541000100041336336
B1948584216189N12303550WA0153501543000100042342352
B1948594216195N12303552WA0153801546000100041344347
B1949004216201N12303554WA0154001548000100040343347
B1949014216206N12303557WA0154101550000100037339351
B1949024216211N12303560WA0154301552000100037335334
B1949034216216N12303563WA0154401554000100040332344
B1949044216222N12303567WA0154401555000100040328342
B1949054216227N12303572WA0154401557000100040326349
B1949064216232N12303576WA0154501558000100038329355
B1949074216237N12303579WA0154601559000100038335350
B1949084216242N12303582WA0154701560000100038340341
B1949094216247N12303585WA0154801561000100038339328
B1949104216252N12303588WA0154801562000100035335349
B1949114216257N12303590WA0154901563000100032333350
B1949124216261N12303593WA0154901563000100031341353
B1949134216266N12303595WA0154801563000100032345351
B1949144216271N12303596WA0154801562000100036350344
B1949154216276N12303597WA0154701562000100040346335
B1949164216282N12303600WA0154701562000100038339339
B1949174216286N12303603WA0154901563000100033332340
B1949184216291N12303606WA0154801563000100032330343
B1949194216295N12303609WA0154701562000100034332339
B1949204216300N12303613WA0154701561000100037332340
B1949214216305N12303616WA0154701561000100040333341
B1949224216310N12303620WA0154801561000100039333339
B1949234216315N12303623WA0154901563000100037332318
B1949244216320N12303626WA0155101563000100033334328
B1949254216324N12303629WA0155001563000100028340345
B1949264216328N12303630WA0154801563000100028342344
B1949274216332N12303631WA0154401562000100030342347
B1949284216337N12303633WA0153901560000100034342344
B1949294216343N12303634WA0153701558000100041348341
B1949304216349N12303635WA0153701557000100039346330
B1949314216354N12303637WA0153501555000100031342343
B1949324216358N12303639WA0153201554000100027339339
B1949334216361N12303640WA0152801551000100025336344
B1949344216364N12303642WA0152201548000100025337350
B1949354216367N12303643WA0151601543000100028338350
B1949364216372N12303646WA0151401539000100035339004
B1949374216377N12303648WA0151101535000100034344032
B1949384216381N12303648WA0150801532000100031004043
B1949394216386N12303645WA0150501528000100030022047
B1949404216389N12303640WA0150101524000100033048051
B1949414216390N12303632WA0149801519000100034066071
B1949424216391N12303624WA0149601515000100033077085
B1949434216390N12303617WA0149301512000100033092095
B1949444216389N12303610WA0148901507000100035106103
B1949454216386N12303604WA0148601507000100037117112
B1949464216382N12303597WA0148301499001100039131119
B1949474216377N12303592WA0148101496001100035133121
B1949484216374N12303587WA0147801493001100030129125
B1949494216371N12303583WA0147401488001100029124126
B1949504216369N12303578WA0146901484001100031122131
B1949514216365N12303572WA0146401479001100036127132
B1949524216362N12303567WA0146201475001100036130131
B1949534216358N12303561WA0146201472001100035130128
B1949544216354N12303556WA0146101469001100037130136
B1949554216350N12303551WA0146001467001100033127134
B1949564216347N12303546WA0145801465001100031121133
B1949574216344N12303541WA0145601462001100035129136
B1949584216340N12303535WA0145401460001100039137133
B1949594216335N12303530WA0145401459001100038137136
B1950004216330N12303525WA0145501457001100037138138
B1950014216326N12303520WA0145701457001100035141139
B1950024216322N12303517WA0145701457001100030146152
B1950034216317N12303514WA0145601456001100032149149
B1950044216313N12303511WA0145501456001100037153144
B1950054216307N12303507WA0145501457001100040153143
B1950064216302N12303504WA0145501458001100040152146
B1950074216296N12303500WA0145701460001100038150140
B1950084216292N12303496WA0145701462000100036148144
B1950094216287N12303492WA0145901463000100036145146
B1950104216283N12303488WA0145901464000100035144132
B1950114216279N12303484WA0145901464000100031147158
B1950124216275N12303481WA0145901465000100026149149
B1950134216271N12303479WA0145901466000100025151154
B1950144216268N12303477WA0146001467000100025159159
B1950154216265N12303475WA0146001468000100025168164
B1950164216261N12303475WA0146001468000100026173162
B1950174216257N12303474WA0146001468000100027172159
B1950184216253N12303473WA0145901468000100029169151
B1950194216248N12303472WA0146001469000100030168164
B1950204216244N12303471WA0146001469000100030169179
B1950214216239N12303470WA0146201471001100031168188
B1950224216235N12303469WA0146301472000100030173183
B1950234216230N12303469WA0146601474000100030177177
B1950244216226N12303469WA0146801476000100028181204
B1950254216222N12303469WA0147001479000100026184182
B1950264216218N12303470WA0147401481000100026198200
B1950274216214N12303472WA0147501483000100029208211
B1950284216210N12303476WA0147601484000100034215218
B1950294216207N12303482WA0147601486000100036232231
B1950304216205N12303489WA0147801488000100036248246
B1950314216205N12303497WA0147801489000100036262261
B1950324216206N12303504WA0147901490000100036281273
B1950334216209N12303511WA0148001491000100037298290
B1950344216214N12303516WA0148201492000100033321309
B1950354216222N12303516WA0148601494000100038000331
B1950364216228N12303513WA0148801496000100041012012
B1950374216234N12303510WA0149101498000100039025022
B1950384216238N12303504WA0149601501000100033038034
B1950394216240N12303499WA0149601504000100030053048
B1950404216240N12303493WA0149601505000100029073063
B1950414216239N12303486WA0149601506000100031097082
B1950424216235N12303480WA0149701508000100033122103
B1950434216231N12303475WA0149801509000100033137125
B1950444216226N12303472WA0150001511000100033150140
B1950454216221N12303469WA0150201513000100032159157
B1950464216216N12303467WA0150301515000100032162161
B1950474216211N12303466WA0150601516000100034164164
B1950484216205N12303464WA0150401517000100037169181
B1950494216200N12303463WA0150801519000100036177186
B1950504216194N12303464WA0151001521000100034189199
B1950514216190N12303467WA0151101523001100030212204
B1950524216187N12303472WA0151201524001100030231221
B1950534216185N12303478WA0151301526000100032241235
B1950544216184N12303485WA0151301526000100035249249
B1950554216183N12303492WA0151501527000100037261254
B1950564216183N12303500WA0151501528000100038273268
B1950574216185N12303508WA0151601528000100040292279
B1950584216188N12303514WA0151701529000100038307297
B1950594216194N12303517WA0151901531000100037338311
B1951004216200N12303519WA0151901532000100038348343
B1951014216205N12303518WA0152301534000100034003353
B1951024216210N12303515WA0152501535000100030023009
B1951034216213N12303511WA0152801537000100029041030
B1951044216215N12303505WA0153001537000100030058048
B1951054216216N12303499WA0153301539000100031072064
B1951064216216N12303491WA0153701541000100031087077
B1951074216213N12303485WA0153701543000100031111092
B1951084216209N12303480WA0154101545000100029133114
B1951094216203N12303478WA0154301547000100030171134
B1951104216198N12303479WA0154501549000100032194169
B1951114216193N12303482WA0154701552000100035204192
B1951124216188N12303486WA0154701552000100037218203
B1951134216185N12303493WA0154801556000100036235216
B1951144216184N12303500WA0155101558000100036252232
B1951154216183N12303508WA0155101559000100036265250
B1951164216186N12303515WA0155401561000100037295264
B1951174216190N12303521WA0155601563000100033313295
B1951184216196N12303523WA0155801565000100032344315
